:1000000000000120B5350000B1350000B135000019
:10001000871E0000B1350000B1350000B135000089
:10002000B1350000B1350000B1350000B135000038
:10003000B1350000B1350000B1350000B135000028
:10004000B135000019680000B1350000B13500007D
:10005000815F000071680000256800003D680000B5
:100060001D680000B1350000B1350000B135000059
:10007000B1350000B1350000B1350000B1350000E8
:10008000B1350000B1350000B1350000B1350000D8
:10009000B1350000B1350000B1350000B1350000C8
:1000A000B1350000B1350000B1350000B1350000B8
:1000B00075680000216800003D830000B135000034
:1000C000AD680000B135000029500000B1350000D6
:1000D000B1350000B1350000B1350000B135000088
:1000E000B1350000B1350000B1350000B135000078
:1000F000B1350000B1350000B135000010B5054C38
:10010000237833B9044B13B10448AFF300800123C3
:10011000237010BDC800002000000000BCB7000024
:1001200008B5034B1BB103490348AFF3008008BD7A
:1001300000000000CC000020BCB70000154B002BD5
:1001400008BF134B9D46A3F5803A00218B460F460E
:100150001348144A121A09F010F90F4B002B00D063
:1001600098470E4B002B00D0984700200021040038
:100170000D000D48002802D00C48AFF3008009F0B4
:10018000CDF82000290002F007FB09F0B3F800BF0A
:100190000000080000000120000000000000000036
:1001A000C80000205C1A00200000000000000000D1
:1001B00037B50446684680E8060003C8251D85E873
:1001C00005002373069B2361BDF81C30A382002326
:1001D0002360084B1A6812B91C6004E00A461168D3
:1001E0000029FBD114609888013080B2988003B058
:1001F00030BD00BFE406002007B503790193054A2E
:100200000368009306CA02230830FFF7D1FF03B04A
:100210005DF804FB049700000A4B40F2011210B590
:100220001A604FF0FF329A6001225A6008441A4661
:10023000814202D1D869C04310BD11F8014B9461CD
:10024000F6E700BF00C001400F4A10B41468A4F1E3
:100250007E62A2F58432B2F5605F0B460FD2246B4A
:10026000A4F17E62A2F58432B2F5605F07D2246900
:10027000064A0146A44600205DF8044B60474FF44F
:1002800081705DF8044B70472808E10F34070020A7
:1002900070B51C4D2A68A2F17E63A3F58433B3F5D3
:1002A000605FE0B004D34FF40174204660B070BDCD
:1002B000136B002BF7D05B6A4FF4C07269460020C5
:1002C000984704460028F0D140F201262A68A2F19E
:1002D0007E63A3F58433B3F5605FE4D2126BA2F1C1
:1002E0007E63A3F58433B3F5605FDCD2936A0021AB
:1002F00068469847B042E9D040F20323984218BFBD
:100300000446D2E72808E10F154B0228D3F88031C4
:1003100013D0032814D0012814BFDBB2C3F3072382
:100320001B0323F47042B1B9BAB90E49CA6E22F464
:1003300070421343CB6601207047C3F30743EFE7D6
:100340001B0EEDE70749D1F8E02022F47042134379
:10035000C1F8E030EFE7002AF4D00020704700BF7A
:10036000B081E00F00300E40304B1A6FD96CC907D6
:1003700002F0070242D5012A40D9132851D9143876
:1003800013288CBF102308232849013BCA6C18038B
:1003900022F47F4240EA03231343CB64244BCA6C0C
:1003A0001B88C2F303222833013202EB820003EBE5
:1003B0005303B3FBF0F3C86C013B072B20F0EE6056
:1003C00028BF072340F4801040EA0363CB64194B35
:1003D000B3F90030002B10DB2833500800EB420249
:1003E00003EB5303B3FBF2F30A6D072B28BF07237C
:1003F00022F0700242EA03130B657047DB6CD907E9
:1004000006D4012A04D809280BD90A380928B8E7E4
:10041000064BDB6C13F00103B6D0012A03D8272862
:10042000AFE70423B0E70023AEE700BF00300E4083
:10043000020700200407002042EA032340F20112D1
:1004400093422BD0B3F5817F08D2012B1DD030D33E
:10045000B3F5807F31D0002213461CE040F2012228
:10046000934222D006D8B3F5007FF4D1174BD3F8CE
:1004700070310DE0B3F5407F23D040F2013293425A
:10048000E9D1124BD3F878310BE0104BD3F874312B
:10049000C3F30722DBB203600A6070470B4BD3F84B
:1004A00074311A0EC3F30743F5E7084BD3F87831DC
:1004B000EEE7064BD3F86C31EAE7044BD3F86C3126
:1004C000EFE7024BD3F87031EBE700BFB081E00FEC
:1004D000044B1B685B0603D4034A1368002BFCD152
:1004E000704700BF3C300E40C800C6430E4B30B5CD
:1004F0000E4C5B68C9B2002304EBC30215798D4230
:1005000003D154F8335085420BD20133052BF3D17C
:10051000032205494B6823F0407343EA02634B60B2
:1005200030BD5279F5E700BF00000E40189600007C
:1005300038B5054C41F67133256C2364FFF7D6FFBF
:100540000DB10023236438BD00000E400C4B9842CF
:1005500010D90C4B984210D9022201230A490B6092
:100560000A49D1F8003123F0807343EA0263C1F8ED
:100570000031704700221346F0E70122FBE700BF7D
:100580000048E8010090D0034000C84300400E40FE
:10059000094B30B5196C5C6C0022234642EA010419
:1005A000220C82701A0A210AC2701A0C1B0E0470E7
:1005B00041700271437130BDB081E00F214BD3F81F
:1005C000F82102401CD170B4D3F8FC51D3F800627A
:1005D00003F5FC74641BA410022C12D0032C29D048
:1005E000012C1AD0184A52682A6005F10C02686082
:1005F000C3F8FC21A96033680C33336070BC7047CA
:100600007047114A1C1D52682A60686004221960F4
:10061000C3F8FC41326070BC70470B4C1A466468EA
:100620002C6042F8080B08205960C3F8FC213060A8
:1006300070BC7047044C6468A960C5E90040C3F809
:10064000FC31E7E7E0130020001000E0837DDB07CA
:1006500001D5808A7047D0E901239B1A44BF828A62
:100660009B1898B270470000044B5A6D22B9586528
:10067000A3F858100120704700207047840600201E
:10068000D0B50C4CE38C0A20584308F097FB064683
:10069000A08C0F4608F092FB0022074B08F0F8FBF5
:1006A00002460B463046394608F01CFD08F002FEB3
:1006B0002083D0BD840600200000F43F084A10B516
:1006C000146840F2E243584303FB0141536800F5CC
:1006D000807001EB500118441160506010BD00BFE4
:1006E0008406002070B500228AB01346D91003F0AA
:1006F0000704415C2141CC0741BF0AA98918013296
:1007000001F8283C0133252BF0D10E4D0023D910E0
:1007100003F00704415C2141C90707D5E91881F8B6
:100720002A300133252BF2D10AB070BD0AAE93FBFB
:10073000F2F102FB11313144EC1811F8286C84F805
:100740002A60EEE784060020024B986C80B280029B
:10075000704700BFB081E00F7FB50E4B02466D467B
:1007600003F11006186859682C4603C40833B342D5
:100770002546F7D1531E04A90F3211F8014D13F885
:10078000010F844204D19342F7D1012004B070BD1F
:100790000020FBE7F894000070B5154D286810BBE9
:1007A000144B154CE41A154B1C4424F4FF6424F03C
:1007B0000704FFF7C9FF844214D2666BA6B1FFF7A6
:1007C000C3FF864210D2FFF7BFFF06F1400383420A
:1007D0000AD83046FFF7C0FF30B1F36933F00803A1
:1007E00002D02C60286870BD04F50064E1E700BF0A
:1007F0004801002010000020C400002007C00000B5
:10080000BFF34F8F0549064BCA6802F4E0621343F9
:10081000CB60BFF34F8F00BFFDE700BF00ED00E0EE
:100820000400FA050A4B1A68A2F17E63A3F584332B
:10083000B3F5605F09D2126BA2F17E63A3F5843336
:10084000B3F5605F01D2D36B184740F201107047D7
:100850002808E10F0D4B10B41C68A4F17E63A3F5CA
:100860008433B3F5605F0BD2246BA4F17E63A3F5F0
:100870008433B3F5605F03D2A36B5DF8044B184774
:1008800040F201105DF8044B704700BF2808E10FEB
:10089000064B1A68A2F17E63A3F58433B3F5605F5B
:1008A00001D2536A18470020704700BF2808E10FA3
:1008B000114B196801F1704303F5F813B3F5006F9C
:1008C0000CD20E4B1B68A3F17E62A2F58432B2F506
:1008D000605F03D209680A4A914203D00023037083
:1008E000836070471968074A9142F7D1012202706C
:1008F0009A6842609B69F3E72800E10F2808E10F3E
:10090000AD1007B007B0CD5E10B50C4630B9044845
:10091000FFF7CEFF034B23600423A380002010BD0C
:10092000A4010020A801002010B508B3114B1A68DB
:10093000918881421CD39988814281BF012112682C
:1009400099809A6099889A6800242AB904B19A60BB
:100950004FF6FF71998009E0884204D00131126896
:1009600089B20124F1E70CB198809A60104610BD5D
:100970000022FBE7EC06002037B50D461446FFF7D2
:10098000D3FFD8B10369828A63B14FF6FE718A4200
:1009900008D100200090ADF804006946984738B1AE
:1009A00003B030BD2B602280286848B92080F7E76B
:1009B000009B2B60BDF804302380F5E70120EFE7B2
:1009C0000020EDE737B50D461446FFF7ADFF70B1D7
:1009D000036973B1818A4FF6FE72914209D1009585
:1009E000ADF8044069460120984703B030BD0120AE
:1009F000FBE70E20F9E7000037B50379124A03330D
:100A00000446019300F14403009306CA0223143004
:100A1000FFF7CEFB228A0192E268237A009204F16A
:100A20002C0094E80600FFF7C3FB237AA4F84500E6
:100A3000054684F844302279216804F1470008F023
:100A400091FC284603B030BDFC96000070B50E4CFA
:100A50000E4B04F1100206460D4692E803001834CE
:100A600083E803001846FFF7C7FB094B94E803002F
:100A700002221A7283E80300DE601D821846BDE878
:100A80007040FFF7B9BF00BFF89400007413002056
:100A9000CC0400202DE9F041054616468846FFF7B4
:100AA000D5FDAB8A181A80B2864228BF0646374663
:100AB0005FB93EB1D5E901329A4202BFAB7D43F046
:100AC0000103AB753046BDE8F081AB8A2C68A8689D
:100AD0001C44241AA3B2BB428CBF3C46A4B222469B
:100AE000414608F03FFCAB682968AA8A23440A44BF
:100AF000A0449342A7EB0404AB60A7B228BFA9604F
:100B0000D6E770B5044615461E4611B3FFF79EFDA5
:100B1000A38A181A80B2012829D9E37D63B1E3685A
:100B2000628A1A70120A07D02068A18A0133014430
:100B30008B4228BF0346F4E700236382A368E36087
:100B4000022204F112012046FFF7A4FFE37D0133E6
:100B5000E375324629462046FFF79CFF638A03442B
:100B60006382E37D13B9238A0344238270BD00208E
:100B7000FCE72DE9F041164605468846FFF766FD7D
:100B8000864228BF0646B6B237464FB92EB1AB7D76
:100B9000DA0744BF23F00103AB753046BDE8F081AE
:100BA000AB8A2C6869681C44641AA3B2BB428CBF30
:100BB0003C46A4B22246404608F0D4FB6B68296844
:100BC000AA8A23440A44A0449342A7EB04046B601E
:100BD000A7B228BF6960D8E770B51E46038A0446ED
:100BE0001546EBB9C27DDAB10123013A0B70C2752B
:100BF00000F110010222FFF7BCFFE37D9BB1228AC6
:100C0000B24228BF324629462046FFF7B2FF238A68
:100C10001B1A2382E37D13B9638A1B1A638270BD9A
:100C200000230B70EBE7638A2382E8E770B50D467B
:100C3000A8B9FFF7B1FD446BFFF7AEFD58B12346ED
:100C4000084C03F1400618685968224603C208336D
:100C5000B3421446F7D1044B2B600423AB80002031
:100C600070BD00BF4C0100206C0100202DE9F04355
:100C700085B088466946044681E80C000C9EBDF8A4
:100C80003470FFF751FE4FF6FE7905460DB144452D
:100C900005D94FF6FF74204605B0BDE8F0832B7AE6
:100CA0009DF804209A421ED10099686808F076FBEE
:100CB000C8B9002EEFD02B69AA8AA3B14A4509D141
:100CC0000290ADF80C0002A9984760B9029BBDF8EC
:100CD0000C2043B1974206D13A461946304608F0F7
:100CE0005DFB0028D7D001342D68A4B2CEE7000008
:100CF000F0B5354C87B011464FF486701F46164646
:100D0000FFF75CFC236925462BB94FF48370FFF78E
:100D100055FC07B0F0BD002F08BF082E21D101AA55
:100D20000321206803F034F8636860615B7A2376FE
:100D30009DF80430DA1F53425341627E63F3000290
:100D4000039BE361BDF806306276638304F118010A
:100D500023690220984701220021206803F020F82F
:100D6000D7E7002F08BFB6F5000F03D100210120FF
:100D70009847CEE706F4A0420023134309D04FF46E
:100D800080714FF48170FFF719FC23690021032063
:100D9000EEE706F4A0620023134308D001214FF4CC
:100DA0008170FFF70BFC2B690021FF20E0E706F0C4
:100DB00020520023134319BF012140F20110314694
:100DC0004FF48370EDE700BFCC1100201FB5022364
:100DD0008DF80630064B5A8B596918680332ADF806
:100DE00004206A4602F0D8FF009805B05DF804FBC5
:100DF000CC11002008B500214FF48570FFF7DEFB11
:100E0000044B00221A61186801220321BDE8084042
:100E100002F07CBCCC11002013B50D4B0D4C1B888F
:100E2000ADF804300128ADF8003004BF02238DF87E
:100E3000043001A908BF0423206808BF8DF80030E2
:100E400002F00AFF6946206802F01EFF02B010BDE2
:100E500018950000CC11002037B5124C437A606021
:100E600000220092D0E90021206803F005F8238CCD
:100E7000DB050CD563680C4D1A7A2978914206D0AF
:100E8000012A06D0022A08D063681B7A2B7003B0AF
:100E900030BD206802F0C6FFF6E7206802F0C8FF08
:100EA000F2E700BFCC110020E1060020F0B51A4C9B
:100EB0001948637A0133DBB2272B85B088BF25231D
:100EC0006372FFF7C9FFE768657C627D134C1449C4
:100ED00020684FF40073023202F03AFF6368114A4F
:100EE0005B7A05F001052846D65CFFF795FF0022E6
:100EF000012300928DF80C30314602AB2068029736
:100F000002F008FC28B1FFF775FFFFF7CFFF05B02F
:100F1000F0BD054B2361FAE7E4000020CC1100206E
:100F2000F8000020CE9600000917000038B50D46E5
:100F300011462C68A41A2246014408F03EFA2C609F
:100F400038BD00002DE9F843454F464B464EDB1BAC
:100F5000464F34683B4423F4FF63051B23F007032B
:100F600043489D420560B146804673D31444FFF761
:100F7000EBFB2C44A0F5805084426ED830681618E4
:100F8000B6F5806F03D93B4B82221A7060E03A4F6E
:100F9000384408F0E7F9394BC9F800601A681AB903
:100FA000332E55D97A6B1A601B689D4205EB0604F7
:100FB0001DD8A3421BD203F11002A24248D85B1BEA
:100FC0001F442F4A3B4607F1100153F8040B42F827
:100FD000040B8B42F9D12A48FFF7BEFB10B9254B11
:100FE0008422D2E71022FF21384608F0C6F9254FA7
:100FF000254B386806F00306A41B1C4058B905EAC7
:101000000300C0F500612144FFF70CFC3C6040B1D7
:10101000184B8522B9E7844203D9211A00F50060F4
:10102000F2E7D9F800201449D8F80000921BFFF726
:1010300011FCD9F80020D8F800300B49921B044667
:1010400013440D48C8F80030FFF770FF002CDFD1C3
:10105000BDE8F883074B872297E7064B832294E786
:1010600010000020C4000020C411002007C00000B0
:101070003C0B0020390B0020C40D0020C00D0020C7
:10108000B00D0020C811002000F8FFFFEFF3108022
:1010900072B670470B4A536911699B0003F03C0319
:1010A000C1F381110B438370136903F03F03437055
:1010B0009369D26903F0F003C2F303121343037080
:1010C000704700BFD0FF0FE0054A064B1B68136F47
:1010D00023F007031843044B10671888FFF744B93F
:1010E00000300E408009C64300070020EFF3108057
:1010F00072B6704700B962B67047000010B5034C75
:10110000A01DFFF7EFFA0023236010BD900D002013
:1011100010B5094CB4F80710A079FFF7CFFAA3680F
:10112000064AB4F80D10D184C3F30F239384FFF75C
:10113000A7FA0023236010BD900D00208406002034
:10114000034B044A9979117500221A60704700BF59
:10115000900D002084060020FFF7CCBF2DE9F04160
:101160000D4F06460D4614460CB9BDE8F081EFF36D
:10117000108872B623462A4631463846FFF7C1FC2E
:1011800003464046FFF7B6FF002BEDD0E41AA4B2A9
:101190001D440026E8E700BF740C002013B50023AF
:1011A00001F10804ADF80430ADF8060021461A46F6
:1011B000083151F8100C70B90BB1ADF804200422BD
:1011C0000DEB020101200834FFF7C8FF54F8101C92
:1011D00039B902B010BD51F80C3C1A4492B2012347
:1011E000E6E734F80C2C0020EDE700007FB5002383
:1011F0000130CDE90101CDE904336946044B009388
:1012000004200392FFF7CAFF07B05DF804FB00BF9C
:10121000920100200E4A1368A3F17E63A3F5843384
:10122000B3F5605F10B50ED2EFF3108072B60949C6
:1012300000240B780C70FFF75DFF3BB11368BDE82D
:1012400010401B6A18474FF4817010BD1846FCE728
:101250002808E10F8D0D002001282DE9F34740F00B
:101260003B818B88012B40F039810B681B7813BBC5
:101270009C4A9D4C13609D4A13609D4A13609D4A91
:1012800013609D4A13609D4A13709D4A13609D4AE6
:1012900013602278022A01D1FFF7BCFF01232370DB
:1012A000994B00241C70994B1C70994B1C70204664
:1012B00002B0BDE8F087032B40F0FB80944B8A4ED0
:1012C0001C78002C52D13378002B00F0E6808B4B39
:1012D0001B78082B40F08480824B1868984688B9A8
:1012E0008C4D2B68A3F17E63A3F58433B3F5605F67
:1012F00057D34FF4017041F20804A0420CBF86247A
:10130000802433E010F003071ABFC7F10407FFB2CF
:10131000274600EB070ABAF5806F00F2C4807E4BC7
:101320003A46FF21184408F028F8754A7B491368AB
:101330000968C8F800A00AEB03008842914600F251
:10134000B6806A4A15681D445544DFF8ACA125F4FF
:10135000FF65DAF8000025F0070585420BD9291A48
:1013600000F50060FFF75EFA18B1852400233370A2
:101370009DE7CAF80050D8F80010D9F80000FEF731
:1013800063FFD9F80030D8F80020564913440546C9
:10139000DF1B6148C9F80070FFF7C8FD002D9FD022
:1013A000E3E7FEF775FF0028A5D12A680190A2F1B6
:1013B0007E63A3F58433B3F5605FD6D2126BA2F1DE
:1013C0007E63A3F58433B3F5605FCED293690121C8
:1013D00001A898470028C8D14C4B01221A70C5E7D4
:1013E000002B5CD0484B1B78002B5AD0454F3B68F4
:1013F00043B9404B4A4918681022FFF72BFA0028DE
:10140000B4D0B2E713F003021CBFC2F10402D2B29F
:101410009D18B5F5806F46D84248FF21184407F063
:10142000ACFF414A414B324841493D609B1A414A19
:10143000134402680B409342804636D81544FFF7A8
:1014400083F9A0F58050854231D83D68DFF8A89037
:101450002A44D9F8000002EA0105854209D9291A6F
:1014600000F50060FFF7DEF900287FF47EAFC9F8D1
:1014700000503A682B49D8F80000FFF7EBF9D8F88C
:1014800000303A681F49054613442648C8F8003022
:10149000FFF74CFD002DACD067E7812466E784247C
:1014A00064E7802462E7822460E787245EE7832480
:1014B0005CE7042B14D1204C1323022163702046D7
:1014C0002170FFF7D1F81D4A1D4B128905329A8011
:1014D0001C4A1A6062789A710024E8E60D24E6E658
:1014E0000624E4E6340B00203A0B0020D41300203D
:1014F0003C0B0020C00D0020C81100208C010020F2
:10150000400B0020C4110020380B0020990100205E
:10151000390B00202808E10F34070020D8130020E1
:10152000B00D0020C40D002010000020C4000020D9
:1015300000F8FFFF07C00000A40D00208406002073
:10154000900D0020051C00000E4A1368A3F17E6375
:10155000A3F58433B3F5605F10B50ED2EFF31080BE
:1015600072B6094B012419781C70FFF7C3FD39B915
:101570001368BDE81040DB6918474FF4817010BD57
:101580000020FCE72808E10F8D0D0020134A144CC1
:1015900008B5937E43F040039376124B00221A70F5
:1015A000114B1B784FF000556BB1FFF7CDFF0F4B80
:1015B0002B600123A360236823F4E06343F480637A
:1015C0002360FFF71DF92B600123A360236823F438
:1015D000E06343F480632360FFF712F98406002080
:1015E00000500E40E00600209901002002020FF09A
:1015F00010B5134CA37E5B0621D4FFF7FBFB2168DB
:10160000A38C40F2E24202FB0312226094F84F10D6
:10161000A27A25200A4492FBF0F100FB1122A2726B
:1016200022890132228162680A2101FB032363605F
:10163000238B5A1E228313B90820FFF7A7FF10BD82
:10164000840600202DE9FF41294C40F60100218944
:10165000FEF7B4FFA37E13F0400242D143F0010332
:1016600003F0FD0362F38203224AA376136823B1D9
:1016700021899288914200D19847A37A1E4F1F4832
:10168000234493F82A306375FFF7E6FBD4E900544E
:101690007B681B4A5B7A64082E1B12F803800120CA
:1016A000FFF7BAFB64350096002625446A460124FC
:1016B00041463346386802958DF804608DF80C6019
:1016C0008DF80D408DF80E6002F04EF8224605466A
:1016D0003146386802F064FB35B1FFF789FFFFF748
:1016E000B1FF04B0BDE8F081064B3B61F9E700BFF4
:1016F00084060020900D0020CC11002090060020D0
:10170000CE9600006D18000002282DE9F0411FD090
:1017100002D8012807D0FEE7032800F09C80FF28AC
:1017200000F09980F7E74D4C637C980707D5FFF7E9
:1017300061FBFFF7BBFB637C6FF341036374637C66
:10174000990701D4DA0764D4BDE8F041FFF7AEBBD6
:101750004B784C68DB077ED5227802F00F07032F09
:1017600059D0052F77D13E498B7B03F00103B3EBB2
:10177000D21F04F108004CD10622083107F00EFEFA
:101780008046002845D1FFF735FBFFF71FFB354D9D
:10179000414606465C22284607F0EFFDAB7E2F83CC
:1017A00043F02003AB76627E237E43EA0223AB84C0
:1017B000627F237F43EA0223EB8494F82330C3F350
:1017C000040385F84F3094F82330C3F3421385F8AF
:1017D000503004F11E001B232B85FEF783FFD4F845
:1017E0000E30E27CEB60A37C2E6043EA0223227D74
:1017F000607D43EA02432B61012795F84F30AB72BD
:101800002F75E18A3944FEF759FFFFF71BFF164B8E
:101810001F70BDE8F081124DAB7B03F00103B3EB09
:10182000D21F04F10800F4D1062205F1080107F0E7
:10183000B5FD0028EDD1094C286894F83D204FF4FF
:101840000073023204F13C0102F082FA637C43F03F
:1018500002036374DDE7FFF7CDFA75E7E4000020CB
:10186000CC11002084060020E006002002282DE98B
:10187000F7430F460BD003D8012800F0B281FEE7F2
:10188000032800F0B681FF2800F0B381F7E748781D
:101890004E68BB4D10F0010461D14FF0FF3140F6AE
:1018A0000300FEF78BFE2646AB7EB64C13F0200FEE
:1018B00012D0696D6FF34513AB76002900F09F805D
:1018C000237895F85820627043F003032370A01C1E
:1018D00007F048FD00236B65AB48DFF8D082FEF7C8
:1018E000B5FEAA7E2378003018BF012060F34102C4
:1018F000C2F30011AA7661F38203C2F3C00262F35D
:10190000C30360F304132370218840F60200FEF73E
:1019100055FE62789B49D8F8000002324FF40073FC
:10192000D2B202F015FAAB7E7C68D90709D56FF305
:101930000003AB7600236B60FFF748FA2860FEF7E0
:101940009FFE4EB1237803F00303022B00F0318198
:101950006DD8012B00F02C8103B0BDE8F0833188F5
:1019600040F60300FEF72AFE3378A97E96F8008041
:10197000C3F3001363F38201A976C8F3C003C1F374
:1019800000118B4206D108F00303022B05D019D8B1
:10199000012B31D00026344615E0A146767896B169
:1019A0007A48848AFEF752FE201A80B2B9F1000FFD
:1019B00004D0022886BF023880B2002086428CBF45
:1019C000002401242646AB7EC8F38008C3F3C0027E
:1019D000904507D082F0010262F3C303DBB243F00B
:1019E0002003AB76002C3FF45FAFAB7E81F00101AA
:1019F00061F30413AB7657E74FF00009CEE795F893
:101A000028306148A21C0DF10701FFF7E5F8C0B2CC
:101A100058B19DF80730002B0CBF01220222237819
:101A2000607062F30103237056E70122F7E7A378A1
:101A3000022B65D011D8002B4DD0012B38D0544A41
:101A4000127822B1162B7FD0182B00F08C805148D1
:101A5000072202704370022127E00C2B18D0142BB0
:101A600056D0082BEBD1B8F8201054F8035FC8B259
:101A700005EA0002474801F47F41044642EA0105B5
:101A8000092104F8011B0023C0F8015063600CE039
:101A900040484FF0FF32037001234370827003719E
:101AA00002220023C27043710621FEF7DDFD53E7D9
:101AB000617A237A384A43EA0123938013463749EF
:101AC00043F8061B54F8031FC2F80610A2889A8038
:101AD000A2799A7140E7627B237B2F4943EA022374
:101AE0008B800B462E4A43F8062B54F8032FC1F87F
:101AF000062062685A6022891A81A27A9A722BE7BC
:101B00002A89254B05329A80264A1A60E278E0E756
:101B1000B4F80530B4F803201E48DB08934228BF10
:101B200013462B85152300216FF004046FF0270264
:101B300003700723817081714470C2700371447116
:101B4000C27103720921B0E72279E378114813408A
:101B500003F00303022B18BF012317220270437006
:101B600083700321A1E76279A1790B4B42EA01223C
:101B70009A800D4A1A60D4F80320C3F80620EBE6D9
:101B800084060020E4150020740C00205C0B00206B
:101B90008C0D0020A40D0020900D0020FD100000F1
:101BA00011110000051C000041110000CC110020A3
:101BB00000261248818AFEF749FD081AA51C80B24A
:101BC000647826B1022886BF023880B20020A3B212
:101BD00083423FF6C1AE2A4631460848FEF791FFE0
:101BE000BAE6074B9B7E9A073FF5B6AE5B073FF51B
:101BF000B3AEFFF7FDFCFFF725FDADE65C0B002063
:101C00008406002008B5024B9879FFF7BFFC00BF9F
:101C1000900D00202DE9F34106460F469046072817
:101C200000F29180DFE800F004BF2621BA8F8F0E0A
:101C30004FF400754FF4807408230920002F00F042
:101C4000988086E001A8FFF725FA9DF80530012B62
:101C500006D94FF400454FF480440E230F20EDE7E2
:101C60009DF80430022BF4D8FEE70124022500235E
:101C70002046E3E7002979D04D4A536A13F0300F2C
:101C800064D14C4BDB6B536AD90705D5536A23F0FB
:101C9000300343F010035362042402230320464D13
:101CA000434A2B4414669B001A68002AFCD0B8F102
:101CB000000F48D00544AD002B68002BFCD0022E4D
:101CC00041D1002F3FD03A4B5A6A12F0010F1A4609
:101CD00041D04FF48062C3F8A82020225A665A6A85
:101CE00012F0300F0CBF4FF440024FF40002D3F853
:101CF000901032EA0101FAD1520201D5D3F8A03096
:101D00002B4E012200210220D6F89C70FFF782FFA3
:101D1000D6F89030726A294B22F0300242F010025D
:101D20007262C7F30A07316BFA0903320F2A03EA1A
:101D3000010328BF0F223B4343EA02733363346637
:101D40002B68002BFCD002B0BDE8F08104240223F4
:101D500003200027A3E7536AD2F8903003F440032E
:101D6000B3F5400FF8D1D2F8A030C9E70825022317
:101D700003200F4A0121156601FA03F3D2F89010EF
:101D80001942FBD1B8F1000FDDD00123084A03FA54
:101D900000F0D2F890300342FBD1D4E72025102484
:101DA000042305204AE7802540240623072045E731
:101DB00000400E4000300E408004F21000F8FF0F8B
:101DC0000048704700F0490200F00F000138072872
:101DD00048D8DFE800F0040F1947232D4735244B7E
:101DE000D3F8943003F00703023B052B3CD8214A7B
:101DF000D05C70471E4BD3F8803003F00703013BE3
:101E0000042B33D81C4AF3E7194BD3F8843003F082
:101E10000703013B042B29D8184AE9E7144BD3F8F0
:101E2000883003F00703013B042B1FD8144ADFE777
:101E30000F4B1B6F13F0010F14BF092007207047D1
:101E40000B4BD3F85C3103F03003202B06D0302B42
:101E500006D0102B0CBF07200120704704207047CC
:101E60000820704700207047052070470120704708
:101E700000400E402A950000309500003595000086
:101E800030950000FEE708B5FEF7BAFC044B054AA2
:101E90009A60D3F8882042F47002C3F88820704713
:101EA00000ED00E0000000000D4AD2F8943003F08D
:101EB0000703023B032B0ED8DFE803F0020F0F0BE2
:101EC0000848D2F80031C3F304230133B0FBF3F028
:101ED00070470548F5E70548F3E74FF40040F0E7A1
:101EE00000400E4000F0490260F59000C0EA210178
:101EF000154B1B685B0670B504460E4622D4FEF7F0
:101F0000E7FA124B5B68C3F3014398421AD0104BB7
:101F1000D3F80031FFF7C8FF022C054602D1214655
:101F2000FEF706FBC4F1020210239340074A136137
:101F30000EB1FEF7CDFA2CB921462846BDE8704017
:101F4000FEF7F6BA70BD00BF3C300E4000300E40C8
:101F500000400E40094B1B685B0610B50C460BD4C5
:101F600020B9074BD3F80031FFF79EFF2146002030
:101F7000BDE81040FFF7BCBF10BD00BF3C300E40B5
:101F800000400E4008B5FFF78FFF044BD3F808312F
:101F9000C3F308230133B0FBF3F008BD00400E404B
:101FA0001128F8B505460C4611D104290FD100219E
:101FB0006748674EFFF7CEFF05F00F05013D072D7F
:101FC00067D8DFE805F01306626660876692002630
:101FD000F2E7604D013C0C2C5BD8DFE804F0795B44
:101FE000625A5A695A5A5A585A5A7200023C0A2C72
:101FF0004FD8DFE804F04340343A4E4E4E4E4E0682
:1020000046000320052401221146FFF703FE524D2E
:102010004F482F6C41F671332B640021FEF766FAAE
:102020000FB100232B640EB1FEF752FA4B4B5C67E5
:10203000FFF7A8FF0446FFF737FFFEF787FAFEF722
:1020400047FA474B59682046C1F30141FEF770FA41
:10205000FEB930460121BDE8F840FFF77BBF41489B
:10206000FEF774FA02200446CDE73E48FEF76EFA0A
:1020700001240320C7E701200324C4E7002004242F
:10208000C1E70724C3E7384DA4E7384DA2E704238E
:102090002B60F8BD012211460020FFF7BBFD022393
:1020A000F6E7012211461046FFF7B4FD0123EFE7E2
:1020B000FFF7FAFEFEF74AFA2D4B01221A600323BE
:1020C000E6E7012211460720FFF7A4FD0523DFE71D
:1020D0000023DDE7072C04D0092CDAD11F4B0122A5
:1020E00001E01E4B00221A67D3E7013C072CD0D831
:1020F00001A353F824F000BF4B21000093200000FF
:10210000932000003D210000932000009320000058
:102110002F2100001921000003221049D1F85C3161
:1021200023F0300343EA0213C1F85C31B1E7012226
:1021300011460420FFF76EFD0122EEE70122114651
:102140000220FFF767FD0222E7E70022E5E700BF74
:1021500000F0490280400E4000000E4000400E405A
:1021600000300E400148E80188400E4084400E4097
:102170000816C84338B5C0F30323013B04460D4697
:10218000092B1AD8DFE803F031211A190524271981
:102190002A2E174B0022C4F3043442B11548D0F85C
:1021A0004411C90703D4D0F840110A42FBD103F10E
:1021B000047304EBC3039B001D6038BDFFF7E2FE10
:1021C000FEF7C4F900220C4BE5E700220B4BE2E7D7
:1021D00001220B4BDFE710220A4BDCE74FF4803281
:1021E000094BD8E70022094BD5E70022014BD2E783
:1021F000B0400E4000400E40B8400E40C0400E407F
:10220000E0400E40E8400E40F0400E4050410E408D
:102210002DE9F84F404E414D96F800A08146884682
:102220001746BAF1000F39D1FEF78EFA3C4CA0F5F3
:1022300080502060FEF788FAA0F500606060012100
:102240003848FFF797FF216808200431FDF7E4FFC5
:1022500023681B68834208BF2368616808BFD3F8FE
:1022600004B001F104014FF008000CBF4FF0010A67
:10227000D346FDF7D1FF63681B68834205D16368CD
:102280005B685B4506D8002305E0BAF1000FFAD180
:10229000FF2300E001232B700123337095F90030F8
:1022A0005A1C28D01E4ADFF880A052F823600C3652
:1022B00035464FF6FF7BC5F30A030833B3F5006FCD
:1022C00019D2AB885B4516D0A879291D0430FDF7DB
:1022D000A3FF2B68EC888342E4B202D1AB884B4564
:1022E0000CD0033404F4FE740834254486EA050354
:1022F00013EA0A0FDFD0002038700AE03B78A342CF
:10230000F9D3224605F10801404607F02BF83C704E
:102310000120BDE8F88F00BFDC1300201000002072
:10232000F806002000650A0000F8FFFF2DE9F04FD5
:10233000012891B040F01A828A88002A00F01882A1
:10234000AB4B93F800A09846BAF1000F00F0128250
:10235000A84B1C781E465CB9A748029005783DB989
:10236000A64D28681718B7F5806F05D982241C7010
:10237000204611B0BDE8F08FDFF8A092096848440C
:1023800006F0F0FFBAF1020F2F603CD0032FEFD917
:102390009B4F3846FEF78CFA3B78D9F80020012B8A
:1023A00047D17B68190E012903D1C3F307430A2BD8
:1023B0004CD9944B9A423FD1BB68DA0344D50223EF
:1023C00088F80030FFF7C0F88F4B1A68A2F17E63DF
:1023D000A3F58433B3F5605F0BD2126BA2F17E6379
:1023E000A3F58433B3F5605F03D2936809A9002095
:1023F0009847864B099A1A60854B0A9A1A6098F892
:102400000030022BB4D1834A1378082B934640F056
:10241000BD8081482B6801687D4F03F003095A187D
:102420003F68A2EB0902BA42804611D98324347076
:102430009EE7744B9A4207D0842333703378002B85
:1024400096D033701C4693E78623F6E78823F8E797
:102450006E4ADFF8D8A11768DAF800001F440F446D
:10246000A7EB090727F4FF6727F00707874209D979
:10247000391A00F50060FEF7D5F908B18524D6E7D2
:10248000CAF800702968D8F80000A1EB0901FDF72F
:10249000DBFE2A68D8F800305849A2EB090207464B
:1024A00013445E48C8F80030FEF740FD002FE5D128
:1024B0009BF80030002B7FF45BAF2B687F2B7FF6FF
:1024C00057AF574FDFF84081386810BBD8F800305D
:1024D000A3F17E63A3F58433B3F5605F14D20123C7
:1024E000CDE90A0009A88DF82430FEF7E1F90A9B2E
:1024F000C3F307421B0E77D0012B01D10A2A73D9EF
:10250000D8F800309B6B9847464B186006F03EFFAA
:102510003860444BD8F8002019683868A2F17E630F
:10252000A3F58433B3F5605FA8D2936A9847002877
:10253000A4D1D8F80030A3F17E63A3F58433B3F5BA
:10254000605F21D201232A688DF81830CDE9070099
:1025500006A8D7F800A00392FEF7AAF9079B190E68
:1025600012D00129039A03D1C3F307430A2B0BD9D5
:10257000D8F8003005A90091D3F83490274909AB69
:102580005046C847002853D0842450E7002B8FD0F2
:1025900021492B680A681A440A60214A10681A4ABD
:1025A0001168A1F17E62A2F58432B2F5605F11D2AA
:1025B000CF6A1A4A1C49B84707462A680F49174884
:1025C000FEF7B4FC40F203239F4206D1029A012396
:1025D0001370CDE640F20227EFE740F201239F425D
:1025E0003FF466AF802422E74FF4C0708CE700BF51
:1025F0003A0B0020390B0020380B0020340B002050
:10260000B0010020EB17A6032808E10FD413002027
:10261000D81300208C010020400B0020340700203C
:10262000540B0020580B0020440B0020C811002040
:102630009DF824308BF800300393FEF7ADF8039B30
:102640008146002853D0D0F834A0002B3FF490AE40
:102650000022069210AA042102F82D1D352006A999
:102660000393FFF7D5FD069AD30752D5039B082B9A
:102670003FD05346BAF1000F3CD1B9F1000F4BD116
:10268000DFF810913C4BC9F80430D8F800203B4BE0
:1026900038681968A2F17E63A3F58433B3F5605FEF
:1026A000BFF4ECAE936A984700287FF4E7AED8F801
:1026B000001038682B68A1F17E62A2F58432B2F571
:1026C000605F50D2CF6A2E4A4946B84707462A680B
:1026D0002C492B48FEF72AFC40F203239F423FF48B
:1026E00075AF40F201239F427FF47CAF40E6824603
:1026F000ABE7254B039310220CA903F1280006F049
:102700004DFE20B9039B0A9A1B6A9A4201D889247C
:102710008DE6B9F1000F12D04FF400614846FEF784
:1027200081F800287FF4AAAE2AF4FF604FF400611C
:1027300020F00700FEF776F800287FF49FAE9BF8A4
:102740000030082B9CD1114B114A186820F4FF630C
:1027500023F007034FF400611360FEF763F80028CD
:102760007FF48CAE04E640F20227B0E70024FFE5D8
:102770000D24FDE58124FBE5450F0000580B0020EA
:1027800034070020340B0020D8950000D41300201B
:10279000C8110020440B00202DE980480F4B5B68D6
:1027A0005805ABB01CD44FF0005300221A6022A889
:1027B000FEF77EF8FDF7F0FFC8B1446BFEF7C4FEEC
:1027C000249B590740F18781FDF7E6FFFEF760F88B
:1027D0000446FEF71FFD54B1BBE100BF00500E40A0
:1027E0004FF000531A68022ADDD100221A60BFF3AD
:1027F0004F8FBFF36F8FBA4ABA49536ABA4FBB4D76
:1028000023F4803353629032536823F00103536002
:10281000086890604FF00053D360441CB44B1361C0
:10282000AF420C604ED07E1E731B43EA530343EA53
:10283000930343EA131343EA132343EA1343013395
:10284000B3F5807F38BF4FF48073C3F1000C0CEAFE
:10285000050C03EB0C0E774500F28C815FEAD30880
:10286000AEEB07074FF0010E08BF4FF02008B7FB93
:10287000F8F70EFA07F7013FB3FA83F3FFB2A6EBBE
:102880000C06C3F11E03B6FBF8F6764407FA06F60B
:1028900003FA0EF3A5EB0C07B7FBF8F70EFA07F7F0
:1028A000013F03F03E03374343F0407307F0FF0757
:1028B00043F0011343EA072302309460C2F80CC0CE
:1028C00013610860BFF34F8FBFF36F8F0523536011
:1028D000834A536A43F480335362BFF34F8FBFF38D
:1028E0006F8F844B01225A641A6822AF42F48072BF
:1028F0001A603846FEF7CEFB9DF88930012B03D8CD
:102900009DF88830022B09D97B4B4FF418721A605E
:102910007A4A5A607A4A5A667A4ADA667A4A7B4E24
:10292000136843F4F8431360794B02229A639A6B5D
:1029300002F00F02022A40F02581DA6C22F04052A8
:1029400022F0010242F00102DA64D3F8E02042F4FE
:102950004072C3F8E0206F4A0F211180DA6E42F016
:102960008072DA666C4B186800B10420FEF7ACFB8D
:102970006A4B674DC8221A80694BA0220F200024A1
:102980001A80FDF7F1FC674BAB65CDE91A44229440
:102990007C60D6F86831C3F30722DBB224921C9323
:1029A000EB6CC3F3017A2246534639461AA8FDF769
:1029B00043FDD5F8E030C3F3012922464B4623A955
:1029C0001BA8FDF739FDDDF890C01C9A1A9D2298CE
:1029D000DDF86C80ACEB02014FF416735943B1FB88
:1029E000F3F32146239CD2184FF4167BA0EB05038A
:1029F00028BF01210BFB03F3B3FBFBF3ED18A4EBA2
:102A000008032CBF4FF0010E4FF0000E0BFB03F339
:102A1000B3FBFBF318EB03082CBF01230023944501
:102A2000C0F0B080002940F0AD804445C0F0AA80DD
:102A3000002B40F0A780A842C0F0A480BEF1000F98
:102A400040F0A080324CE36D23F4FE4323F00203F8
:102A500043EA0223E3655046FDF756FC002800F0E8
:102A6000918001214846FDF74FFC002800F08A8044
:102A7000636E454538BF4546E72D23F4FF7328BFF5
:102A8000E72523F0010343EA45036366E36B43F460
:102A90008063E3634AF6E853606B63632146234631
:102AA0009A6FD207FCD41B6C1F4A13F0030365D046
:102AB000012313608B6FDB07FCD40B6C23F0030343
:102AC0000B6413498B6F13F00103FBD101281360D2
:102AD00008BF4B6353E04CBBFEF79CFB87E600BF8F
:102AE00000ED00E070130020BC000020BC000020BE
:102AF0003900011300000E408C420E409A6F050011
:102B00001801000400843208A4310E40B081E00FA7
:102B100000300E40000700208009C6430207002055
:102B200004070020372110B7B40AC643FDF70CFE96
:102B30008442D1D2FDF708FE04F140038342CBD892
:102B40002046FDF709FE0028C6D063696BB9FEF781
:102B500061FBFDF721FE0446FDF71EFE064B986063
:102B600023689D466368984741E69DF88830012BAD
:102B7000EDD129E65B0068E600ED00E01360C64B8E
:102B800001221A60C54CDFF880A3DFF88093112082
:102B9000FFF71AF9012200210220FFF73BF8636AD0
:102BA00023F001036362BE4B00251D60A36A23F07E
:102BB000070343F00603A362BA4BE362226BBA4BEE
:102BC00002F07F6213432363B84B63630421112037
:102BD000FFF7E6F9DAF80030636A0121484643F06E
:102BE0004058FFF7B7F9FDF773FCDAF804104846D0
:102BF000C1F30141FDF79CFCD4F80001C0F30420AF
:102C00000130B9FBF0F0FDF7A1FC012211460220D2
:102C1000FFF700F8C4F82480D4F8C83043F001036B
:102C2000C4F8C830B36AA24E2AAA0424B36509A91D
:102C300002F88C4D35200995FFF7EAFA06238DF846
:102C40001B30099B8DF81A4013F4803F994D0BAC53
:102C500000F06282B36D8DF82C30B36D8DF82D309D
:102C6000B36D8DF82E30B36D8DF82F30B36D8DF8B8
:102C70003030B36D63F03F038DF831309DF8323062
:102C800043F001038DF832306C608B4B8B4A9A60B5
:102C900000264FF48071C3E900221E825961884AE0
:102CA000884BDFF86C829A60C3E9002259612022C8
:102CB000314638461E8206F060FBFC2208238DF860
:102CC0008B20814A8DF8893023928DF8993040F21B
:102CD0000172F823ADF892208DF89B307B4A7C4B33
:102CE00025924FF00109384627938DF8909000F017
:102CF00077FC7848784B03603146784B436000F0AE
:102D0000EBFC63A3D3E90023C8F80000CDE900235E
:102D10004FF0FF334FF0FF3200F0BAFF02224FF0C6
:102D2000FF31D8F800006E4C00F0BCFF6D4B2293D1
:102D3000394603F50033D8F800002496239300F0B9
:102D400083FD2146D8F80000267000F0D6FF4646E5
:102D500030B12146D8F8000084F8009000F0CDFF93
:102D60003068DFF8B0A101F059F82178B5F90020FA
:102D7000306800F045FC0146306800F0A8FF6C6840
:102D8000002C40F0E3815046FDF702FCB37B64F376
:102D90000003B373544B554C554DDFF87C814FF015
:102DA000200983F801935A2283F80493002183F8C1
:102DB000069304F10A0083F8079383F8059383F8D8
:102DC000089383F81D9306F0D8FA42F21073E3607B
:102DD000484B4FF49072C4E9005332842523464A8D
:102DE000637201231370454D23720022C8F800203E
:102DF0001B222A802AAA0DF1190102F8903D3E20DB
:102E0000FFF706FA2AAA112302F8913D15A93620E8
:102E1000FFF7FEF92AAA394602F8929D3920FFF7FA
:102E2000F7F900287AD1364B9DF8172018681B79DE
:102E300022903B71002A00F092811B2A28BF1B229E
:102E4000531D8DF8163015A9531C0DF18D008DF80A
:102E50008B3006F087FA1AA8FDF79AFB294A9DF8ED
:102E600016301288FA522AA99A1C51FA82F20021CD
:102E700002F8201C1A98BDF86C1042F81F0C093398
:102E800022F81B1C8DF8163048E000BFAFF300801D
:102E900008558028000000009407C64300400E40FB
:102EA000A004C8432000050007450BD047A002003E
:102EB000005008409C010020740C00208C0C002065
:102EC000740B00205C0B0020489500003A95000030
:102ED0008C950000FC110020F10C0000F011002086
:102EE000140000203C00940000E100E0E400002019
:102EF000D6BE898E555555008C0D00208E010020C0
:102F0000409600004A96000000300E4000F0490252
:102F1000CC110020D4110020C00300202AAA2023B5
:102F200002F8933D1AA93A20FFF772F948B9B84B55
:102F30001A889B788DF86A300323ADF868208DF8E5
:102F40001530B44BB44800224FF00209C3E9002207
:102F5000B24B036080F80490FDF74EF9B048B14BD6
:102F6000036080F8049010230372FDF745FDAE481E
:102F7000AE4B0360AE4B80F80490C36080F80890BD
:102F8000A0F81090CDE900394B4690E806001430C7
:102F9000FDF70EF99DF81710002900F0EE8015A836
:102FA000FDF754FDA348A44B03604FF0100980F8CF
:102FB0000490FDF721F9A148A14AA24B03604FF606
:102FC000FE7B0823C260A0F810B080F80490037262
:102FD0000393FDF711FD9C489C4A02600C2202728B
:102FE0009B4AC260A0F810B080F80490FDF704FD81
:102FF0009848994A039B02604FF0020B974A80F869
:103000000490C260038280F808B0FDF7F5FC944894
:10301000944B0360944BC36080F8049001230382B7
:1030200080F808B0FDF7E8FC9048914B0360914BA5
:10303000C3604FF6FE73038280F8049080F808B0F6
:10304000FDF7DAFC8C488D4B03608D4BC3604FF667
:10305000FE73038280F8049080F808B0FDF7CCFC82
:10306000884B6C4A1A604FF6FF729A809DF81620C2
:10307000202A05D8931D63753946834806F072F9F6
:103080009DF81520202A06D8931D84F83D301AA9F2
:103090007E4806F067F9FDF7ADFE227C637C002ACE
:1030A0006ED143F001036374237D62F30303B27BAB
:1030B00002F0010262F386132375637D0BB90623C8
:1030C0006375734BBAF80410B068C4F816009980A1
:1030D00094F83C30042161F3030362F3861384F80F
:1030E0003C3094F83D3013B9062384F83D30694BE9
:1030F000B068BAF80420C4F83E009A80FDF7D6FE06
:10310000654C664B1B78002B7BD1654A136923F015
:103110000403136130BFF4E70DF11B0221462C209C
:10312000FFF776F800283FF4B0AD0DF11A0208A9B8
:103130003C20FFF76DF89DF8323020B19DF820203B
:1031400062F300039EE560F300039BE52068B06036
:10315000A288A3798AF80630AAF804201AE6082380
:103160008DF8163004238DF88B304E4B1A889B78DF
:10317000ADF88D208DF88F306DE6032149480FE7BB
:103180006FF300038FE7EFF3108672B600231A4641
:103190000DF11D014448FDF71FFD3046FDF7AAFF64
:1031A0009DF81D3013B10023C8F80030D8F8002076
:1031B000EFF3108672B6C2F501739BB222440DF193
:1031C0001D013948FDF708FD03463046FDF792FF23
:1031D000D8F8000018440328C8F8000011D9B4F842
:1031E000009009F1040398420BD307D860880428A3
:1031F0004FF000075AD0062800F0C8810023C8F815
:1032000000302948FDF722FA0028BCD17DE700BF35
:103210001A950000E4060020941300204D9600004B
:103220002405002050960000080700205396000057
:103230001E950000B4130020569600007C05002067
:103240005912000067960000D4050020789600000F
:103250002D2300001C04002089960000D09500005A
:103260002C0600209A960000CD96000074040020E1
:10327000AB96000009090000C4030020BC960000C2
:103280002D0C0000EC060020000100202801002089
:10329000FA00002022010020BC010020E0060020EE
:1032A00000ED00E0469600005C0B002022796F8064
:1032B00009F1FF33082A9BB200F0DF801BD8042AF3
:1032C000B74E39D0062A4ED0022A1AD1022B40F02E
:1032D0005981B4F805700022B7F5007F28BF4FF47C
:1032E00000770323114602203370A6F80170FDF722
:1032F0007DFF2F8082E7102A00F0F48003D80A2A8D
:1033000070D0062294E0122A00F09B80522AF8D155
:10331000B4F80500FDF708FB00283FF46FAF037B0E
:103320005B077FF56BAFA9F1030292B29D49B4F838
:103330000500FDF747FB61E7042B79D1B4F8057070
:10334000B8B2FDF7F1FA58B1027A41687780022AE3
:103350000CBF0123022305203070737003205FE04F
:103360006F800A2264E0DFF840B2B4F80500B4F8D8
:103370000710CDF844B04FF00203A9F107028DF811
:10338000483092B20BF102030093019211AB0CCBC7
:10339000FDF76CFC4FF6FF7A5045814604D1636817
:1033A000C3F30F236B80DCE7CDE900774FF0020316
:1033B0008DF83830CDF834B001300DAB0CCB514620
:1033C00080B2FDF753FC50451CBF00F1FF3080B2C6
:1033D00007233370A6F80190A6F8030000221146D7
:1033E00004201DE0022B40F0CD80B4F80500FDF76D
:1033F0009BFA00283DD0037B990714D52B882AAA75
:10340000013B22F8803D11A9B4F80500FDF7B4FA9C
:10341000024648B9624BBDF828200B21197011995A
:10342000FDF7E4FEEAE602226368C3F30F236B8034
:103430005B4B20796988587001261E7059801A717B
:10344000CCE7B4F80500FDF76FFA90B1037B1A07DB
:1034500011D5A9F1030292B25249B4F80500FDF763
:10346000B1FA02460028DFD14D4B132119700146F5
:10347000D6E70122D8E70322D6E7A9F1050B1FFA08
:103480008BFBBBF1020F02D0BBF1100F7CD1464B7E
:10349000B4F80500B4F8071011930023CDE9003308
:1034A0008DF848B011AB0CCBFDF7E0FB4FF6FF7386
:1034B000984206463FF473AF2B882AAA043B22F8B1
:1034C0008A3D0AA9FDF758FA024608B16E80AFE7B7
:1034D000334BBDF81E205E8009211970911C597074
:1034E0000A993BE7A9F1050B1FFA8BFBBBF1020F11
:1034F00002D0BBF1100F47D10027B4F80500B4F893
:103500000710DFF8A4A0CDF844A0CDE900775FFA5A
:103510008BFB8DF848B011AB0CCBFDF7A7FB4FF63A
:10352000FF79484506463FF43AAFCDE90077CDF83C
:103530003CA08DF840B001300FAB0CCB494680B2B7
:10354000FDF794FB2B882AAA4845A3F106030746FA
:1035500022F88A3D18BF00F1FF370AA9304618BF8C
:10356000BFB2FDF709FA02460028AFD10C4BBDF8F7
:103570001E205E8011211970111D59709F800A99BB
:1035800005204DE7042253E7024651E7074B11930C
:1035900011A90223CDE913771293FDF7FFFD2DE664
:1035A00092010020C3010020C5010020110000206D
:1035B000FEE7000008B5FEF769FC064B0649074A1E
:1035C0008B4201D3FCF7BAFD52F8040F43F8040B09
:1035D000F6E700BF10000020C4000020C4B70000C0
:1035E00038B5044600F09FFB0FCC044D0FC594E89E
:1035F0000F0085E80F00002038BD00BFE416002052
:1036000047F6FF739A42F0B560D0022960D8314B7B
:10361000CE00981913F831108578012DB8BF012517
:10362000012919460DD1C3785B1B23B1416831F9DB
:103630001310914202DC5819C0B2F0BD013B1BB21D
:10364000F3E740680028F8D0B0F90030934204DB7B
:10365000B0F902309342B8BF13468288FF2A03BFF5
:10366000B0F90640B0F90870012200221CBFC8243E
:103670002827E41A94FBF7F414448A1924B25678E4
:10368000721EA242A8BF22464FF47A7700EBC20115
:103690000132CC88896812B213FB041121EAE1716E
:1036A000B24201F5FA71B1FBF7F104DA00EBC204A2
:1036B000A4888C42EAD200EBC20232F8040C8842A1
:1036C00028BF0846A84238BF2846B5E7FF20B4E720
:1036D0000020B2E7E416002070B50E46044678B12B
:1036E000084D2B7863B9084B186000F07FF831461D
:1036F000204600F06BF8031C18BF01232B7070BD2F
:103700000020FCE708170020041700200846114697
:1037100000F080B82DE9F843124D04460F46994653
:1037200001216B680020904698470646C4B104F119
:103730000C004B464246394604F0DAF8044618B904
:103740002B680120984704463EB100F0ABFB00B95E
:103750001CB100216B68084698472046BDE8F883F5
:103760002046E6E7280000202DE9F041114D0446EF
:103770000F466B6801210020904698470646BCB171
:1037800004F10C004246394600F090FA044618B99C
:103790002B680120984704463EB100F083FB00B936
:1037A0001CB100216B68084698472046BDE8F081AF
:1037B0002046E7E7280000207047431E012B03D96D
:1037C000031F5842584170470120704738B50446DE
:1037D0000D46002100F079FA2946204603F008FF43
:1037E00000280CBF2046002038BD000010B504465C
:1037F00003F074FA44B1054AD4F88430002B08BFB2
:103800001346034A136010BDA36FFFDEB9370000F3
:103810001C00002010B50C4603F080FA1CB103F028
:10382000DBFA0128FBD1034B00215B680320BDE8D4
:10383000104018472800002000B10C3003F006BBF0
:1038400000B10C3003F01ABB0B8810B43BB143F24B
:10385000C822934228BF1346642B38BF64230B80D1
:103860004B883BB143F2C822934228BF1346642BD6
:1038700038BF64234B808B883BB143F2C82293420C
:1038800028BF1346642B38BF64238B80CB883BB1A1
:1038900043F2C822934228BF1346642B38BF6423E7
:1038A0000A89CB8043F2C8244B89A24228BF224612
:1038B000A34228BF23460A814B8100B10C305DF83A
:1038C000044B03F003BF00002DE9F04FDFF894A193
:1038D000614E85B0044600911746994604F0EEF813
:1038E000BAF8005004F0F4F800287DD1236F326854
:1038F00093425ED003F070FA012839D1DFF868B145
:10390000E26EDBF80030206F002B72D0934273D050
:103910001D68116802680DB18D4279D0204603F010
:10392000CDFD0023054601270193D4F880808DF852
:103930000F90B8F1000F77D0002211460DF10F0360
:103940002046C0477DB9D4E91B233360019BCBF8E7
:1039500000200BB9002F42D0009BCAF8003020464F
:1039600003F0ACFB054687B9284605B0BDE8F08FEB
:10397000012003F0D3F903F02FFA0128FBD1374BD4
:1039800000215B6803209847B8E7B5FA85F0400945
:10399000332100F021FA4946204603F09BFD304BCD
:1039A000216F1B68A4F10C009847284605B0BDE8BC
:1039B000F08F002B9ED0009B9D429BD1B9F1000F50
:1039C0000DD067B1D4F8805001228DF80E20002D63
:1039D00037D00022204611460DF10E03A8470025DE
:1039E000284605B0BDE8F08F0023336004F068F886
:1039F0007CE71168026891E73168002988D081422C
:103A000086D1009BEB1A18BF0123019300258CE798
:103A1000316811B10968914201D059687EE70023ED
:103A200001931D46012780E7617994F8B5309942EA
:103A300028BF19464A46204603F0EEFA002D92D1DF
:103A400081E7617994F8B530994228BF194620463C
:103A500003F0E2FA88E700BF1417002028000020D6
:103A60001C0000200C170020101700202DE9F04F3B
:103A7000804683B00E46FDF709FBD8F870308246C9
:103A80001BB1B8F80830B3424FD0D8F86C70002F93
:103A900059D0BC68002C56D0F968002953D0D8F80A
:103AA00080300193002B56D04FF00009CC464D4694
:103AB000A8F10C0B00E0BC68C5EBC50204EB820466
:103AC0000135E289B24216D8228AB242584612D350
:103AD000B4F91210B8F9F0C08C4501EAE17218DDB2
:103AE00098F8AC10FFF78CFD98F8052082428146CB
:103AF0000FD9F968A4468D42DDD3BCF1000F07D180
:103B00005046FDF7F7FA0124204603B0BDE8F08FD8
:103B100064460023194622464046019DA847A8F85E
:103B20000860C8F8704088F8B590002331461A46FE
:103B30004046FFF7C9FE04465046FDF7DBFA204633
:103B400003B0BDE8F08F5046FDF7D4FA03242046B9
:103B500003B0BDE8F08F994618461D4647F6FF7B37
:103B6000A8F10C030EE098F8AC10FFF749FD98F8A7
:103B7000052082428146D2D9F968019B2046A9429C
:103B800016D9BC68C5EBC50204EB82040135E28995
:103B9000B242F4D8228AB242F1D3B4F9121001939E
:103BA0005945184601EAE172DDD14FF0FF09B6E749
:103BB0000028A5D00446B2E7F8B50D1C18BF0125B2
:103BC0000E4607461F21284600F006F9002430461D
:103BD00000F091F91F21284687F8B840C7E91B6417
:103BE00000F0FAF8F1684FF6FF721C20E3B28B4246
:103BF0000BD315460A4A002313600A4A2946384661
:103C00001360FFF733FF2846F8BDB56800FB035388
:103C1000DD89954202D2002DECD02A460134E5E739
:103C20001017002014170020008970470A7838B553
:103C300005461046FFF7C1FD60B14C782046FFF7FE
:103C4000BCFD38B12243530704D42846BDE83840B0
:103C500003F048B9012038BD00B10C30FFF7E6BFD2
:103C600010B504460878FFF7A8FD58B14A78104609
:103C7000FFF7A3FD30B1042A04D02046BDE8104070
:103C800003F05AB9012010BD00B10C30FFF7E8BFB6
:103C900030B4DDE9024500B10C30CDE9024530BC5D
:103CA00002F0C8BF00B10C3003F0C5B870B50446CF
:103CB0000D461646FFF7DAFE30B932462946204651
:103CC000BDE8704003F0B4B870BD03F009BF38B56B
:103CD000044600200D4600F00CF94CB1D4F88C30AD
:103CE0004BB9294604F10C00BDE8384003F0B3B9E4
:103CF000D4F88030FFDE022038BD38B5044648884D
:103D00000D4600F0F6F84CB1D4F88C304BB929468A
:103D100004F10C00BDE8384003F03CB9D4F8803021
:103D2000FFDE022038BD00F0E5B838B505460C4688
:103D3000FDF7ACF9A9696B690C4023436B61FDF792
:103D4000D9F900200CB9002138BD4FF48071FBE790
:103D500000B10C3003F04FBB00B10C3003F065BB79
:103D600007B502AA4FF4007322F8023D0749FFF796
:103D7000F3FFBDF80630B3F5007F05D1022808BF78
:103D8000002003B05DF804FB0120FAE718170020BB
:103D90000846114603F03CBA00B10C3003F016BBE4
:103DA00038B5154658B100F10C0411B1204603F0A6
:103DB00057FB35B12046BDE8384003F053BB0446FD
:103DC000F3E738BD024B1960024B1860FEE700BFF5
:103DD000200000202400002008B528B9034B1960FA
:103DE000034B1868FFF7EEFF08BD00BF200000205E
:103DF00004170020034618B15B7B0C3013B1084751
:103E00005B78FFDE0220704710B5044603F0D8FE51
:103E100020460321BDE8104002F06CBF00B10C3019
:103E2000FFF7F2BF0149FFF7E5BF00BF997B000034
:103E30000149FFF7DFBF00BF717B000070B5437819
:103E400006460C46B3B103F02BFF616802460546F7
:103E5000304603F0BEFE206890FAA0F0000A03F09E
:103E600097F8A17A20892A4681F0010103F0E2FE49
:103E7000002070BD0220FCE71FB500B10C30CDE979
:103E80000112ADF80C3001A99DF818308DF80E30F4
:103E9000FFF7D4FF05B05DF804FB00207047002059
:103EA00070470000014B1878704700BF18190020B8
:103EB000431C08D0044AD2F83C311B0C1B0480B2CE
:103EC0000343C2F83C3170470040084010B5044637
:103ED0000868FFF7EDFF236F4BB15B693BB10A68E0
:103EE000013204BF6FF001020A600A681A60002004
:103EF00010BD7047704731210120FFF76DBF38B505
:103F00000D46044600F056FFAC4042F210716409C1
:103F10004C436423B0FBF3F0B4FBF0F038BD000079
:103F2000034B1A6802609B8883800020704700BFA3
:103F3000360000200F4B0228D3F8883104D183F4D7
:103F40000010C0F340507047012805D113F4400F12
:103F50000CBF01200020704748B9074A506A10F092
:103F6000010005D083F48000C0F38050704700202A
:103F7000704700BF00400E40B081E00F0B4B5B88E4
:103F8000B3F5E16F95BFC8235A2378225022984297
:103F90008CBF172310230B70054B1B7823B1904265
:103FA00094BF00200120704718467047360000205B
:103FB0003400002037B51E4B1B78032B044634D049
:103FC0000DF10701FFF7DAFF1E2C8CBF19491A49C2
:103FD0009DF807204FF001030B608CBF01240024E3
:103FE000164950B1164B4DF601751D60120203F1D2
:103FF000007342F440421A608A810A7C22F0010276
:10400000024322F0020242EA4402D3B20D4A0B7488
:10401000127852B923F0040343EA800323F0080323
:104020008A89CA8143EAC4030B7403B030BD00BF60
:10403000360000200841084608410844D81F0021E6
:10404000044108441B1900200A4B0B4AD3F888315D
:10405000DB4303F4FE1343F40053B3FA83F3C3F1D9
:10406000FF2303F57F03F233C3EB4313013B1370CC
:10407000704700BF00400E403E000020012804D0E1
:1040800008D3022803D00020704707207047044B54
:1040900018787047024B18780430C0B2704700BFE0
:1040A0003E00002030B51F234FF0FF34B0FBF3F388
:1040B0005D1CC3EB4313AC40C01AE443C0B2E4B28E
:1040C00001301460086030BD2DE9F3411646404AC6
:1040D000404C1268404F14403A78012A0546884601
:1040E0001AD144EA006488F80000002333607B881A
:1040F000B3F5E16F8CBF5A23C82324F47F549D424B
:1041000024F008049ABF200A00F47F5043F6C870D8
:10411000204302B0BDE8F081304A1278904228BFB7
:104120001546002B14BF042300232B440B70002DD5
:104130002FD12B4B33606A46284601A9FFF7B2FF07
:10414000009A284B01981B7898F800C044EA823402
:1041500044F47F5444F0080444EA0064FBB122496B
:104160003878224BB2FA82F2C2F11F02022818BF3D
:104170000B46511C17D09B5CD8B2316821F07F43AD
:104180003360BCF1000F10D143F0306343F00403FF
:10419000ACE74FF03063013D3360EDB2CBE7FF2079
:1041A0004FF0FF32E9E7FF20E7E7013203D0421E7C
:1041B000D2B2FD2A06D921F07F4323F0040343F055
:1041C0007F4393E743F0040343EA00638EE700BFB5
:1041D000D81F00213F00C0E0360000203E00002034
:1041E0000400000B1E190020B883E00FB083E00F1D
:1041F000F7B50446C820FFF7DDFE284B284D1B7895
:10420000032B01D0FF2C03D1FF20287003B0F0BD99
:10421000012B28D1072C204628BF072001284FF06A
:10422000000301AA0DF1030138BF0120FFF74CFF85
:1042300006461C4B1C4C019AC3F8582126609DF879
:1042400003002870FFF7B6FE019A130203F4E0633F
:1042500043EA1263154A238112780AB966606381C2
:104260009DF80300D2E78BB9042C11D81F461846DD
:10427000201A01AA0DF10301C0B2FFF725FF4FF488
:104280008003064647B10A4A1360D2E70023EDE7F0
:1042900001231F460420EBE7064AF5E7360000201D
:1042A0003500002000400840D81F00211B190020C5
:1042B000084108460841084408B500F0DBFF094BF7
:1042C000094A002814BF18461046036823F47F12D9
:1042D0005B0803F4FE1313430360044B4FF00072BA
:1042E000DA6108BD0041084018410840004008401C
:1042F00008B500F0BFFF4FF4001330B1044A13605B
:10430000044B4FF000621A6008BD034AF7E700BF94
:10431000004108442040084418410844014B1868F3
:10432000704700BF2019002070B505460E46C0B288
:1043300001F00F01FFF7E3FDC6F303110446C5F3D7
:104340000720FFF7DCFDC6F303210444C5F3074053
:10435000FFF7D5FD204470BD444B1B682DE9F047A5
:10436000D0F80061DFF82091DFF82081404F03F49E
:10437000E073A3F5C072002E08BF012682465042AA
:1043800050413C4A1168B1423B4911D10C788442FA
:104390000ED19AF8AC5099F80040A54208D19AF88D
:1043A000065098F80040A54202D1B888BDE8F087D1
:1043B000B3F5C07F1660087054D09AF8AC30022B69
:1043C00047D12E4B1B78002B14BFC82496240F21F5
:1043D0002046FFF794FDB6FA86F3B0FA80F29B1AF6
:1043E000002BC4BFC3F10F05D840254BD8BF0F2504
:1043F00086424FEA0440C3F8BC0003F1806303F136
:10440000B80340F6FF7238BF05F1FF351A6003F1BB
:10441000007329021960FFF787FFB88000F0CAFC1B
:1044200005F01F054FF4FA73AC405C4341F66A0394
:10443000B0FBF3F0134BB4FBF0F40A2044431C60D0
:104440009AF8AC3089F800309AF8063088F80030D5
:10445000ABE7012B08D0094B1B78002B14BFF024CD
:10446000B424B4E70024B2E73224B0E7186008406F
:104470003600002030000020191900201E190020ED
:1044800000600840201900203D0000203C00002072
:10449000FF290BD00D4B0E4818600B04090503F4DF
:1044A000E02301F0F87119430A4B1960FF2A0BD081
:1044B000064B40F2F7111960130103F4F87302F090
:1044C00007021A43034B1A60704700BF504108446B
:1044D0000000F70150410846F8B5144B1C6804B1C0
:1044E0000C34204600F0B6FE114E124F3278C5B2A1
:1044F000AA4201D13B78A3B1092D13D80E4B012D4F
:10450000595D05D10D4B1B78012B01D141F04001C4
:1045100001F00F0220460909FFF7BAFF00233570AA
:104520003B70F8BD0025FA21F2E700BF0417002018
:104530001C1900201D1900200C97000036000020D7
:1045400070B52C4D2C4C064600F002FC00211422C4
:10455000284604F012FF327823789B1A274A18BFA6
:104560000123137033682360B388A380C820FFF74A
:1045700021FD234B2A68FF211970224B134022781A
:10458000022A18D1204A4FF4EE41116002F1007264
:104590004FF48A41116043F08043012142F8041C2A
:1045A0002B601A4B03221A60FFF796FF184B01226B
:1045B0001A70002070BD012A16481749174A4FF09B
:1045C000070409D10460062008601549116043F012
:1045D00003034FF44041E1E7046005200860C02177
:1045E0001160104A43F08043812143F004031160BD
:1045F000D6E700BFD81F0021360000201D1900207B
:10460000350000202800C0A0244108445841084437
:104610001A1900200C4108440C410846084108447E
:10462000C1004000084108462DE9F84F2F4F304B9C
:104630003B6000F0BFFB4FF4FA734FF47A76DFF87B
:10464000C880B0FBF6F56B434FEA032A4FEA136BC1
:104650001AEB08004FF000094FF00003254A4BEB1E
:10466000090104F0D9F8A0F580730446BB6218B9BB
:104670002B21FFF7B1FB012406FB04F200275608AB
:104680004FEA0528B8193B4648F1000104F0C4F888
:10469000194B1960194B4FEA046881468A46186025
:1046A000240A25B928462B21FFF796FB01254FF454
:1046B0007A73A8FB036703FB04776C08301947F192
:1046C00000012A46002304F0A7F80D4B074A1960A1
:1046D0000C4B19F1020618604AF10007B30843EACF
:1046E0008773013B1363BDE8F88F00BF005008409B
:1046F0000211010040420F00301900202C19002047
:10470000281900202419002020A10700044B4FF095
:104710000052C3F880211A60024B01225A60704790
:1047200000E100E000500840054B02011344012263
:104730001A604FF4807303FA00F0024B586670471A
:1047400000510844005008402DE9F047144684B059
:1047500005460E469A46FCF799FC022C00F0C680EE
:104760000746FCF7C3FC7D4B7D497E4AD3F8188091
:1047700091F8159012685FFA89F91AB1D3F8188088
:1047800009F10109FCF7E8FC77487849D0F800C046
:10479000D1F800E009F00303002242EA0802ACFB72
:1047A00002891946CDE900891046CDE902014FEA98
:1047B0008178019900230CFB03130193DDE90001CB
:1047C000029B10F1004041F100010EFB038E012C11
:1047D0008E4409BF3168D6F800C0013101EB0E0CE0
:1047E000AEEB0C0E08BFC6F800C0BEF1804FC0F0A3
:1047F00083805F485F49D0F80090DFF860E1D1F82E
:104800000080DEF830E02CF040464FF00040002100
:10481000E6FB090108FB061676454FEA9C7C30460C
:1048200007D90EF1010E0CF1010CB6EB0E000CF0E5
:10483000030C4FF00008E14648EA000849464046AC
:10484000DDE90289A1EB090E8045CDE9000184BFB5
:104850000EF1FF3E41490EF00303DFF834E188BF5B
:10486000096B4246D9B2861A0EF8051000294AD1C2
:104870003A49009A01EB051C05F110031B01CCF825
:104880000C214FF0110C41F803C0029A8B69D1F84A
:104890005CC09A1AB24228D34FF48073AB401CEA32
:1048A000030F22D11EF80520002A45D1002C49D043
:1048B0001AF0010F0B6608D02F4B304941F61F72DA
:1048C00040F201101A6008601A601AF0020F06D058
:1048D000294B2A492A4A2B481A6008601A601AF0A4
:1048E000040F1EBF284B01229A603846FCF702FCD9
:1048F000012004B0BDE8F0873846FCF7FBFB002040
:1049000004B0BDE8F0871AF0010F1EBF1A4941F646
:104910001F7CC1F800C01AF0020F1EBF1649DFF855
:1049200060C0C1F800C01AF0040F1EBF0B494FF061
:10493000000CC1F870C09BE738460B66FCF7DAFB49
:104940000120D6E7114A2D012A4401253846156079
:104950004B66FCF7CFFB2046CBE700BF005008407A
:104960003D1A0020880B0A43241900202819002032
:104970002C190020301900206C5008446C50084657
:1049800000001F1F000001010040084000510844C2
:10499000381A00201030034B0001185800F00100B5
:1049A000704700BF00500840103001F46001000162
:1049B000024B41F003011950704700BF00500840FE
:1049C00038B5FCF793FB094A094B9D69547D094AA8
:1049D0001268E4B20AB19D690134FCF7BDFB002204
:1049E00004F0030342EA0500194638BD3D1A0020D1
:1049F00000500840880B0A4308B5222000F0EAF86E
:104A0000024B4FF480225A6008BD00BF005008409E
:104A10000A4B2DE930481C68094B1D684443A5FB2F
:104A200000BC04EB8174002105FB01CC1BF10042AA
:104A30004CF10003E018BDE8308800BF28190020C1
:104A40002419002008B5FFF7BBFFBDE80840FFF7B9
:104A5000DFBF10B50446FFF7B3FF844202D9003030
:104A600041F1FF31002201F0030342EA040019463C
:104A7000BDE81040FFF7CCBF104B11491B68096B14
:104A80002DE9304820F040424FF000440025E2FB81
:104A900003450C4B1B6803FB02528A4214464FEA43
:104AA000907304D901310133541A03F003034FF01A
:104AB000000B4BEA04001946BDE830882C19002091
:104AC000005008403019002038B50446FFF7BAFFFF
:104AD0000546FFF7B7FF401BA042FAD338BD0000E0
:104AE00038B5344B344C082205461A60012133484E
:104AF000FDF740FB324B1D702378013B012B0CD896
:104B0000237CE07B01229A400C21302313FB00130D
:104B100003F1884303F520431A602A4B00225A67A9
:104B2000002D40D06368002B33D000F043F9626859
:104B300000EB5203B3FBF2F3013B1B0243F0F8031B
:104B40002278022A27D0032A29D0012A2ED143F025
:104B5000020307221C494FF6FF70086001F1007143
:104B60000B60184B5A6753070CD5237CE07B01225E
:104B70009A400C21302313FB001303F18C4303F5FF
:104B800020431A604FF0804395B1104A1360002013
:104B900038BDF823D4E743F001030522DAE743F0F8
:104BA00005030122D6E72A46F823D3E70022D1E7FE
:104BB000074AEBE7C8400E463819002000350A00C6
:104BC00034190020000008407C0008449440084646
:104BD00094400844044BD3F89430002BBCBF034BE3
:104BE000C3F88000704700BF004008400000084044
:104BF0004FF0006310B1024A13607047014AFBE7AF
:104C000094400846944008440020704708B5064B7D
:104C100006491A684FF00450920004F0A3FBBDE867
:104C2000084000F0CDBB00BF7CB200004C970000F4
:104C3000C0F30062034B33F8123080B240EA034005
:104C4000704700BF1697000007B501A8FCF722FACD
:104C5000154B164AC3F8442148F2E672C3F83821CE
:104C60004FF40862C3F83421114AC3F8A020114A56
:104C70004AF63F41916002F580424FF0C071916267
:104C80000022C3F8FC200C4AC3F89C2003F1806387
:104C9000A3F6DC737F221A6003F1007323221A60EB
:104CA00003B05DF804FB00BF00400840C0E653516C
:104CB0007A27000F00300840806D630330B50A4B3F
:104CC0000A480B4C0B491A6842B102EA0005A5429A
:104CD00004BF5D68156008338B42F4D1064BD3F8EE
:104CE0003C21064B1A6030BD0080E00F0000FFFF42
:104CF00000000840B081E00F004008404400002060
:104D00000F4B002210B5C3F88820C3F88C20C3F8DD
:104D100090200C4A012111605A6812F0706FFBD18B
:104D20004FF00452DA6702F5FD5201241032C3F845
:104D300080401A66044B1B689847044B1C6010BDEA
:104D4000004008400C400846400000200C40084449
:104D5000034BFD22C3F8C8200122C3F8CC207047C2
:104D600000400E4008B5FFF7F3FFFFF7A7FFFFF77E
:104D70006BFF0C4B03221A600B4B4FF4C012C3F8AD
:104D8000942003F1C063943301221A6000F012FBF7
:104D9000064B4FF460721A60054A4FF0407313607F
:104DA000936108BDD8600846004008400C400846A2
:104DB000F840084608B5FDF777F8044BD3F81031F2
:104DC000C3F308230133B0FBF3F008BD00400E40ED
:104DD000F8B5044618B1012521684B1C00D1F8BD77
:104DE0000846C1F30746FFF723FF012E03460CD9FF
:104DF000B600A1192246031B9F1852F8040F386011
:104E00008A42F9D104363444E6E7090F6068083471
:104E10000729E1D8DFE801F00A0408110C0F141784
:104E2000C04303F1806301E01A6850401860D3E783
:104E3000FFF74AFED0E705FA00F003F1C063F5E79B
:104E400005FA00F0EDE71A6830EA0202FBD1C3E789
:104E500008B5FFF7AFFF064A126D034690B228B1BE
:104E6000C2F30742DB085343B3FBF0F008BD00BFB9
:104E700000600840064B5A68C2F30362904206D1B4
:104E8000044A136823F0F00343EA011111607047EC
:104E900000400840441F002110B50446FFF7D8FF2A
:104EA000104BD3F8302112040F4A126C02F4C05296
:104EB00048BF4008B2F5805F0ABF1B6BC4F3011303
:104EC000C3F34163022B05D0032B09D0012B00D182
:104ED000400810BDC4F3C4240134B0FBF4F0F8E77B
:104EE0008008F6E7006008400000084000F030034A
:104EF000202B10B512D1C0F302441CB1C0F3C4235F
:104F0000B3FBF4F410F4C01F18BF64006408032C52
:104F100028BF0424FFF7C0FF604310BDC0F3821315
:104F2000012B01D0042B01D10224F3E70124F1E786
:104F30002DE9F84F0646FFF785FD2A4F81464FF0D1
:104F40000008FCF7A3F8284B5C68C4F30364E3B2E1
:104F50009D1E012C8246EDB205D0052C3DD0A3F15B
:104F60000B0254425441012D2CD8204B9B689B09C5
:104F7000C3F309009B0544BF6FEA80506FEA90506D
:104F8000711C0FFA80FB03D0FFF75CFDA0EB090852
:104F90005046FCF7AFF81BF5007F0AD1012D19D957
:104FA000C4B91048BDE8F88F5128A8BF4FF4FE706F
:104FB000F8E7ABF1C80000B210F5007FF4DC6FF445
:104FC000FF70EFE7721C0BD15046FCF793F8E7E750
:104FD000FCF790F84645B4D8E3E7731CF8D00124F9
:104FE000BB46D1E700FEFFFF0040084000700840CC
:104FF000024B012218619A60704700BF00200840F0
:10500000084B10B5D3F8702118B902F00F0010BD8D
:1050100022465968D3F87041A242F9D1C1F3036323
:105020000370F2E70040084010B5FCF72FF8084B7A
:105030001B6804463BB1984728B1002200204FF47A
:10504000007100F0B5FA2046BDE81040FCF752B8F8
:105050004C1900202D4B70B51C682D4B2D4E1D6B2F
:105060002D4B1B68ED0254BFE31A1B192B4CB3FAEE
:1050700083F5B3F1804F98BF2646D5F10205284C41
:1050800054BFEB400025A34288BF5B0803EB5604E6
:10509000B4FBF6F4234E88BF0135B34204F1FF346C
:1050A00094BF0026012644EA862444EA05340C60B5
:1050B00050B3B3FBF0F1642400FB1133634383422C
:1050C00038BF01F1FF314B08013B0139072B4FEA93
:1050D0005101154C03D8072901D89BB991B900207B
:1050E000207012482478062505601148007824B104
:1050F00018B11048022404600020090241EA03119B
:10510000116070BD0120EBE70220FAE7541900207E
:1051100000300840C0CF6A0050190020E067350019
:105120003FBE40253F1B5F1359190020944008449F
:105130005A190020944008462DE9F84F0FF29809BB
:10514000D9E90089A2FB034518EB040A49EB050BDA
:10515000D046D9460FF2880BDBE900ABCB4508BF40
:10516000C2450E460A9F05D20E210020FEF734FEEE
:1051700002201BE00029FBD0C0F3130001EB530118
:10518000B1FBF3F3A3FB0001C30C43EA41330E4927
:105190000B600E4B1A600E4B9E4209D10D49A4FBC9
:1051A000012301FB05339B093B600020BDE8F88F1C
:1051B000E90432460023E00441EA543103F02CFBB9
:1051C0003860F2E7AFF30080501900205419002036
:1051D00000F049020A3BB2DF00C9E876FFFFFFFF9B
:1051E0000046C3230000000038B5154D2B780C464F
:1051F00023B9144B1B6D03F03F032B70124BD3F8F4
:1052000094305B061AD5114BB0FBF3F040F24D53CE
:105210004343A3F546430C3B584300F5C91000F542
:10522000556018B92B21FEF7D7FD01202A78084BCD
:105230005343B3FBF0F02060002038BD0220FCE7B0
:105240005B190020003008400040084000366E0125
:1052500080969800064B1B68C3F3C20203F0070058
:1052600002B15043C3F3821303B15843704700BFE8
:1052700034300840034BD3F8380180F01000C0F3FD
:10528000001070470040084038B5154B154C164DBE
:105290004FF40022B0F1804F8CBF20461846134BCC
:1052A0002A601B68D3B1124B124C1B6F00F5F4201F
:1052B00000F59070B0FBF4F4033CE4B203F0070394
:1052C000A34202D02046FBF7FFFE0B4B1B782BB10D
:1052D0000A4B4FF4702224041A602C6038BD00BFC2
:1052E000E0673500C0CF6A00944008468009C64395
:1052F00000300E4040420F005819002094400844EE
:105300007FB50446FCF75CFD1D4B1E4A0646314640
:10531000186B0092A3792268FFF70EFF054600285C
:105320002BD1A3791849012B14BF184A184A10230E
:105330001360A37920685843FFF756FF03AA02A918
:105340003046FFF787FE134B43F6FF521A6003F116
:105350000073029A1A6003F17E43743B4FF4EE62CD
:105360001A6003F10073039A1A602068FFF78CFF3C
:10537000034BA2889A630022DA63284604B070BD0A
:10538000003008402C300840503008403841084672
:1053900038410844A440084408B5044B01221A705F
:1053A000034B1868FFF770FF002008BD5819002054
:1053B00054190020014B40221A607047944008465F
:1053C00070B5104C0FCC86B001AD0FC5BC22236860
:1053D0000D482B60002103F0D0FF7C2200210B48F8
:1053E00003F0CBFF0A4B0B4A5A6002F0B9FF0A4B9D
:1053F0001B782BB101AD0FCD024E0FC62B68236079
:1054000006B070BDD81F0021441F0021C81E002116
:10541000EC1F00213F0037001A190020094B1978B2
:1054200001F0FF0221B100211970074992020A60C0
:10543000597801F0FF0221B1002159709302034A0B
:10544000136070476E190020A0000846A4000846AB
:105450002DE90048FBF71AFE144B1978E9B9144BF3
:10546000D3E900234FF0000C02F4843B5BEA0C0309
:1054700013D1104B10221A600D4BD3E900234FF0CB
:10548000000C02F4807B5BEA0C030BD1094B202259
:105490001A60BDE80048FBF72DBE074B10221A60CA
:1054A0000029E9D0044B20221A60F2E76919002094
:1054B000601900209440084494400846044B0022A0
:1054C0001A70044B197811B11A70FFF7C1BF7047F9
:1054D0006A1900206919002010B5FBF7D7FD0E21CD
:1054E00004460320FFF7C6FC044B40F2012220468D
:1054F0005A62BDE81040FBF7FDBD00BF0000084048
:1055000008B503210920FFF7B5FC024B20229A6061
:1055100008BD00BF0040084008B5FBF7B7FD234BAE
:105520004FF08052C3F88020BFF34F8FBFF36F8FCF
:105530004FF48072C3F88020BFF34F8FBFF36F8F9B
:105540000222C3F88020BFF34F8FBFF36F8F10226A
:10555000C3F88020BFF34F8FBFF36F8F2022C3F8B3
:105560008020BFF34F8FBFF36F8F4FF00052C3F80F
:105570008020BFF34F8FBFF36F8F8022C3F880204E
:10558000BFF34F8FBFF36F8F4022C3F88020BFF36C
:105590004F8FBFF36F8F0122C3F88420BFF34F8F6B
:1055A000BFF36F8FBDE80840FBF7A4BD00E100E04A
:1055B000F8B5084C084D01232370084BD5E9006766
:1055C0001B6830401A40394002F0BAF900232370BA
:1055D000F8BD00BF68190020601900205C19002088
:1055E0002DE9F84FDDF828B003EA01090B9B0646C8
:1055F0000F4602EA000803EA0B0ABBF1000F3FD195
:10560000002908BF01281ED0C0F0A181002908BFD1
:10561000042865D1FBF73AFD2949D1E9002322F09E
:10562000040444EA080243EA0903C1E9002358EAF2
:10563000090314BF234A244A4FF480631360BDE872
:10564000F84FFBF757BDFBF721FD1D49D1E90023BA
:1056500022F0010443EA090344EA0802C1E90023F5
:105660001A4A58EA09034FF001031DBF936302F180
:10567000C0623C32164912BF13600B609363DEE7D1
:1056800056EA07032CD1BBF1010F29D1FBF7FEFC31
:10569000104A136823F0010343EA0A0313604FF42E
:1056A00080630D4ABAF1000F05D0536602F1C06263
:1056B00068321360C3E709490B605366BFE700BF58
:1056C00060190020EC100846EC10084400700840F7
:1056D0003C7008445C1900200050084068500844A1
:1056E000FFF71AFF9B4BD3E9004524EA060125EAA0
:1056F000070241EA080442EA090521462A46C3E9AD
:105700000012954B1F6827EA0B0747EA0A071F603C
:10571000FFF79EFE04F0AA42002313438F4A9049EC
:10572000126848F2020308BF4FF40043B80748BFAD
:1057300043F4005322EA03060E6001F17C4183EA40
:105740000200043923EA0203864A0860136000233A
:1057500004F48022134304F400204FF0000114BF2E
:105760004FF48053002350EA010204F010004FF080
:10577000000118BF43F4807350EA010204F02000D6
:105780004FF0000118BF43F4005350EA010204F047
:1057900040004FF0000118BF43F4007350EA0102CB
:1057A00004F080004FF0000118BF43F4806350EA1A
:1057B00001026D4A6D49126818BF43F4006322EA82
:1057C00003060E6001F17C4183EA0200043923EAFA
:1057D0000203674A08601360002205F480731343D4
:1057E00004F480524FF0000314BF4FF480260026CB
:1057F000134304F400324FF0000318BF46F4803620
:10580000134304F002024FF0000318BF46F4801661
:10581000134304F400124FF0000318BF46F40016BF
:105820001343A046A94608D0524B186800B10C306B
:1058300002F043FA08B946F4002608F48012002367
:1058400013434FF0000209F0080318BF46F4003676
:105850001343494B18BF46F480061A68790748BFBE
:1058600046F0040686EA020323F0010343491A4086
:105870000A60434A1E401360424A434B17F0010F2F
:105880004FF0000009F002011E60404B18BF1346A4
:1058900050EA01023E4A3F49126818BF43F4001320
:1058A00022EA03060E6001F17C4183EA020004391A
:1058B00023EA0203384A08601360384B38491B68F2
:1058C00008F0010423EA04060E6001F17C4183EA3A
:1058D000040024EA03020439324B08601A6008F419
:1058E000800200231343304A304B314808F004044F
:1058F0004FF0000518BF134654EA050218BF43F4E1
:1059000080633A072B4A116848BF43F0004383EA9B
:10591000010222F4A02211400160274913400A60CD
:10592000264A1360FBF7B2FB254B4FF080521A60FA
:105930004FF480721A6010221A6020221A604FF011
:1059400000521A6080221A6040221A6077E6BDE891
:10595000F88F00BF601900205C1900206C0008401F
:105960006C0008446C0008460C6208400C62084455
:105970000C620846041700202040084020400844DC
:105980001C400840041C50002040084604185000E9
:105990006850084068500844685008463C70084009
:1059A0003C7008443C7008460D0A0A09090A0A09B5
:1059B000EC100844EC100840E8100840EC100846D1
:1059C00000E100E0024B5868C0F38000704700BF60
:1059D00060190020024B186800F00100704700BFFA
:1059E0006019002010B50446FFF7BCF9FFF794FDDD
:1059F00004F12C0002F0C2FAFFF782F9FEF714FE60
:105A0000FEF784FE02F03EFD072104F1840002F05F
:105A10007DFD4FF440010020FEF7C6FF4FF400115A
:105A20000120FEF7C1FF02F0D1FE10B91421FEF7EC
:105A3000D3F9FFF7B1FC0120BDE81040FFF750B8E3
:105A4000044B80221A60044A136823F02003136079
:105A5000704700BF88400846C81E0021674BDB68BE
:105A6000DA0740F185802DE9F04B0C4682B00546FF
:105A7000FBF70CFB23790022022B064600923FD154
:105A8000237B022B35D00320FEF784FF20B95C4B2B
:105A90005B685B0440F19F80A37B277B5949A26828
:105AA0000192003318BF0123012F0B7062D0564CB6
:105AB0005649227800230B70002A66D14F4D0420EE
:105AC000FEF732FEEB6E23F0F85323F4F81343F0A5
:105AD000506343F48033EB663A46022301A9042065
