:10000000881000209D3500002F1A0000051C0000FC
:10001000371A0000DB1A0000131B0000000000006C
:10002000000000000000000038010000A31E0000D6
:10003000231F0000780100008B1F00009B1F0000A1
:10004000000000000000000000000040FFFFFFFF74
:10005000000000010000000000000000000000009F
:10006000FFFFFFFFFFFFFFFFFFFFFFFFFFFFFFFFA0
:1000700000000000FFFFFFFFFFFFFFFFBCE6FAAD3F
:10008000A7179E84F3B9CAC2FC6325516B17D1F23E
:10009000E12C4247F8BCE6E563A440F277037D819A
:1000A0002DEB33A0F4A13945D898C2964FE342E234
:1000B000FE1A7F9B8EE7EB4A7C0F9E162BCE3357A2
:1000C0006B315ECECBB6406837BF51F5FFFFFFFF07
:1000D000000000010000000000000000000000001F
:1000E000FFFFFFFFFFFFFFFFFFFFFFFC5AC635D8F2
:1000F000AA3A93E7B3EBBD55769886BC651D06B06A
:10010000CC53B0F63BCE3C3E27D2604B4C000000B7
:10011000C0000000000000000000100020000000EF
:10012000454652333200000001000000010000008B
:10013000004004000000030007B0CD5E0100000095
:1001400000000C01D4350000006000000000080031
:10015000F00001005F250000632500001508000085
:10016000591900008B190000B8010000C5190000E2
:10017000291A00000000000013B779FAC925DDB77D
:10018000ADF3CFE0F1B614B80101000000000000AB
:10019000D03500004000000000000C01000000000D
:1001A000000000000000000000000000000000004F
:1001B000000000000000000000010000F902000043
:1001C0004F0300007D0300009B030000E1030000DB
:1001D000E3330000D1320000B1340000010400001C
:1001E0002904000085040000BD0C0000C70C0000BD
:1001F000EB0C0000330D00002D0D0000024870478D
:1002000002487047024870474CE307006CE3070060
:1002100086E207004FF4882070470000002000BFEE
:1002200010B5ADF50A7D4FF4027208A900F0E8F8A8
:10023000002108A800F0F8F840F201218842F7D028
:1002400040F2032240F2054490423DD19DF8200047
:1002500041071CD5129800F043FBC0B100F04FFCE1
:100260001C4988420AD168461BA1202200F0D0FC1C
:10027000684600F05DFCB0F5403F25D0869800F060
:1002800067F920B100F000FD00F03AFBE0B19DF805
:10029000200081070FD528200268099993688B42B6
:1002A00009D2869800F066F970B100F0EDFC119962
:1002B00000F0F0FA08E09DF82000C10704D50B9982
:1002C000869800F07DF908B9204600E000200DF581
:1002D0000A7D10BD0000034300000343000000003E
:1002E000000000000000000000000000000000000E
:1002F000000000000000000010B504000CD04FF416
:1003000080302060002161603C48027822724068A1
:10031000E06000F0C1FC206110BD78B504460D46D8
:1003200004F5FC76A1B0B1683068802301AA00F022
:1003300025F80095802301AA214604F12C0000F045
:10034000AFFEF060B0688030B06022B070BD024691
:1003500040F20140002900D1704710B5274B5C687E
:10036000A24203D300220A604A6010BD03EBC20020
:1003700082680A60C0684860002010BD38B500F08F
:1003800021F800D326E000F017F800D225E09B68A2
:10039000C018BDE8384000F096BC38B500F012F83F
:1003A00000D317E000F008F800D216E09B68C018F0
:1003B000BDE8384000F099BC03EBC403DC681518B5
:1003C000AC4270470446084611461A460B4B5D681E
:1003D000AC42704740F2014032BD40F2024032BDB3
:1003E00006494A68904202D340F20140704701EB4F
:1003F000C000C168806800F09CBC000028010000BB
:100400003EB504460D461146284601F0A5FA50B9FE
:1004100069462046FFF79BFF28B905F5FC7004608C
:100420000199416000203EBD38B584B004460D46B8
:100430006846102101F0FCFA029504F5FE75A868E3
:1004400088B96868296888420DD269462046FFF756
:1004500064FFA86800281CBF41F2070188420BD145
:1004600040F2012008E0A07800281DBFE0780028B5
:1004700040F2032040F2022005B030BD0120187088
:1004800070470000F0B585B004460D4616460027BB
:100490008DF800700DF1040055A100F08BF8CDF837
:1004A00004D037601C21284601F0C2FA04F5FE771B
:1004B0009DF8000080B994F8720014280CD0B86838
:1004C00050B978683968884206D201A92046FFF7FA
:1004D00024FFEDE705B0F0BD2078810744BF6068D8
:1004E00030602178C80705D51C2204F10801284690
:1004F00000F08EFB9DF80010002905BF2078002831
:10050000002040F20640E5E770B504460D46202382
:1005100004F5C87204F5A47104F12C0000F07DFD0F
:1005200004F5FE76B06850B970683168884206D22A
:1005300029462046FFF7F1FEF4E7002070BDA078C1
:1005400000281CBFE0780028F7D0012070BD000013
:1005500080B5ADF5067D00F047F808B1002008E051
:1005600004208DF81100684625A100F023F800F062
:1005700024F836E038B5ADF5067D04460D4600F0AA
:1005800080FB8068A84206D24FF4027204A920467C
:10059000FFF736FF08B1002009E002208DF81100B6
:1005A0004FEA0D001AA100F005F800F006F80DF56D
:1005B000077D30BD102200F02BBB694604A8A3E7DD
:1005C00080B5ADF5067D00F00FF808B1002008E019
:1005D00001208DF81100684611A1FFF7EBFFFFF72E
:1005E000ECFF0DF5077D00BD4FF4027204A907E78B
:1005F000000000007D0400007D0400007D04000078
:10060000000000000000000000000000A307000040
:10061000000000000000000000000000A307000030
:10062000000000007B070000000000000000000048
:10063000F8B50446600B0D461646B4EB403004BFD7
:10064000204601F0F9F904F500577F0B7F0304E021
:10065000384601F0F1F907F5005730198742F7D312
:1006600032462946204601B00223BDE8F04001F0A1
:10067000EEB938B504460D4600F0B4F850B16069E3
:10068000012805D1207C022802D2A069286002E05E
:10069000002032BD2C60012032BDF0B504469DB073
:1006A00040F204600090656B00F0EBFA07462846C4
:1006B00000F098F800285ED0287C02282CD200F0A8
:1006C000D8FA28B1286A012101F002FA002852D094
:1006D00034200668304600F085F800284BD045F6F7
:1006E000C170864218D200208DF8040001A9284666
:1006F00001F0F1F900283ED002A92846FFF7B9FF22
:10070000002838D002983969884228BFA04203D314
:1007100001467148814201D300202CE003A801F07A
:10072000DDF902982146021B03A801F0EDF903A8A8
:1007300001F0ECF9029C00F09AFA203450B19DF8D7
:10074000040008B1A86B00E0B06B00F12401009137
:10075000031D06E0FFF754FD0546FFF74FFD034676
:1007600000950299224603A801F0E3F90090009851
:10077000401E8041C00F1DB0F0BD70B504460D464F
:10078000164600F07EFA01698C4222BF4069321998
:10079000904205D3324629462046BDE8704047E7DF
:1007A00070BD2DE9F04104468846164600F069FA0E
:1007B000074600F069FA25187019474988420ED299
:1007C0003CB900F061FA796988423CBF386901F0B0
:1007D00033F9324641462846BDE8F04128E7BDE8F6
:1007E000F08100007FB504464FEA0D0050A11022B1
:1007F00000F00EFA002046420DEB0605E97B225C74
:10080000914205D1401C1028F5D3012004B070BDE1
:100810000020FBE7F8B5044625686768666B00F0C2
:1008200030FA05F1604548F201018D4229D2006994
:10083000874226D328498F4223D24030864201D3B3
:100840008E4205D301F094FA401E8041C00FF2BDE4
:1008500001F08EFAB8B93046FFF7C4FFB8B1307C6A
:1008600002280ED2706990B102280CD1B0694FF005
:10087000FF32001D011B204601F07CFA1749884217
:1008800005D00020F2BD2046BDE8F24005E701207A
:10089000F2BD000038B588B004460D464FF0FF3277
:1008A00001F068FA0D4B984212D101F013F940F2B1
:1008B000022001F079FA684621A1202200F0A8F96F
:1008C00000F032F8294600F030F8684600F062F88F
:1008D000002009B030BD000001000800E320BBDEAD
:1008E0001CB504464FF0FF310091684600F0D7F880
:1008F00008B1002016BD0098A0428041C00F16BD6F
:1009000010B5044688B040F2022001F04DFA684666
:1009100013A1202200F07CF900F006F8684600F0F0
:1009200039F8002008B010BD2146684600F028B80C
:10093000B814B6F1E0CFF3ADB7DD25C9FA79B71336
:10094000010006430000000000000000000000005D
:100950000000000000000000000000000000000097
:100960000000034300000000000000000000000041
:100970000000000000000000000000000000000077
:10098000C269042A05D200EB8202D160C169491C08
:10099000C1617047F0B50146C869052800D3F0BDB4
:1009A000884A12684FF48030874B1860874B884C18
:1009B000D2031C60874D5D605CBF874B1860224688
:1009C000864810600B6800245360854B05E001EBFE
:1009D0008400C56843F82450641CC8698442F6D377
:1009E0000025486800E0406890B10668002706E0EE
:1009F00056F827C06D1C7F1C43F824C0641CD0F837
:100A000008C0CCF3990C6745F2D34668012EEAD1B1
:100A1000C86945EA00659560116850684140906872
:100A20004140002003E053F82020401C5140A042E8
:100A3000F9D343F82410BFF34F8F6A490A686A4814
:100A400002F4E06202430A60BFF34F8F00BFFDE78C
:100A500010B55C4802684FF480305B49D2030860EF
:100A6000624B19685D4A5CBF5B4B18600868904236
:100A700013D10869401DB0F5007F0ED2002200237B
:100A800003E051F823405B1C62408342F9D351F8E4
:100A90002000904201D1012010BD002010BD38B5CA
:100AA00000F00BF85CBF4C4A106004B910E0FFF78F
:100AB000CFFF00B90FE0686810E0044641480168C4
:100AC0004FF48030404AC9031060484B1D6870479E
:100AD0004FF4E02032BD4FF47E0032BD2060002094
:100AE00032BD10B500F017F85CBF3B4A1060FFF74D
:100AF000AFFF18B1A068C00D00F0010010BD10B527
:100B000000F009F85CBF344A1060FFF7EAFF00B953
:100B10000BE0E06810BD2B4801684FF480302A4A92
:100B2000C9031060314B1C6870474FF47E0010BD44
:100B3000F8B524490A684FF48031234BD203196079
:100B40002A4C25685CBF244B19608468FFF7C9FFF5
:100B500010B94FF47E00F2BD296905F114024FF07F
:100B6000FF3052F82130434042F82130A86810F499
:100B7000702F03D0A86800F47020F2BD00200DE0B3
:100B8000884211D257F820C0401C42F823C05B1C99
:100B9000B342F5D308D164686408640024B988427C
:100BA0000CD24FF4E020F2BD884207D22268A3683D
:100BB00005F11407C3F399060023E9E70020F2BD0D
:100BC00000000000648000406490004000C60740C0
:100BD000004C00A0004E00A064A00040DEC0ECE588
:100BE0000C4C00A00CED00E00400FA0504C6074020
:100BF00062B38B0708D0521E11F8013B00F8013B8D
:100C000000F024808B07F6D1830740F0208000BFDE
:100C1000103A07D330B4B1E83810103AA0E83810D1
:100C2000F9D230BC530724BFB1E80810A0E808107F
:100C300044BF51F8043B40F8043BD20724BF31F8CD
:100C4000022B20F8022B44BF0B7803707047083A40
:100C500007D3B1E80810083A40F8043B40F804CB49
:100C6000F7D25307E4E700207047002070470020C8
:100C700070470020704701207047282001680869EC
:100C800070472820006870474FF40040704741F2D9
:100C900006007047012070473DA07047384A9142D6
:100CA00038BF904201D3002070470818904280411D
:100CB000C00F70474FF4003032495DE032480068A1
:100CC00000F00100704770B50D46164604463146E7
:100CD000FFF7E4FF10B940F2024070BD32462146F2
:100CE0002846FFF785FF002070BDF8B50D46164673
:100CF0000446314640F20247FFF7D0FF58B10020CA
:100D000000E0001DB04208D2015911F1010FF8D0E6
:100D100040F20340F2BD3846F2BD32462946204635
:100D200000F0BDFE0028F6D00020F2BD4FF0FF30ED
:100D3000704738B505460C46E00401D1E90402D0FD
:100D400040F2044032BD21462846FFF7A7FF48B1D4
:100D5000284600F071FE05F50055B4F5005404D0A6
:100D60000028F5D140F2024032BD0028FAD0002020
:100D700032BD4FF400300549086000207047000084
:100D800001000800689000401C00034068A000407B
:100D900001020300280000002800000000200000DD
:100DA00000000800200100000400000070B54B683E
:100DB0008C689C4206D200F140021B1B14781B1960
:100DC000412B01D3002070BD0D6853781478E418CE
:100DD0008B6804F03F04EE5C06558C68641C8C60E4
:100DE00013785B1C13708C684B689C42ECD3012019
:100DF00070BD90F840004A6889681018401A704722
:100E0000F8B584B0144600260546019600960823DE
:100E100002AA00F047F841F20306B0423BD195F830
:100E2000430005F1480738B100F037F83868082367
:100E300002AA02A901F066F89DF80A209DF80B00AD
:100E40009DF80910120442EA00629DF8080042EA87
:100E50000122024322609DF80E009DF80F1000F061
:100E600071FD9DF80D1040EA01209DF80C1008431B
:100E7000606095F8430048B9DFF8581A8A421CBFF1
:100E8000DFF8540A824201D000F007F860680021C0
:100E9000F960B860304605B0F0BD7868082202A954
:100EA00000F032BE2DE9F0410C4617461D46804643
:100EB000FFF79FFF08F14006A84206D221464046B0
:100EC000FFF774FF10B300204DE000210CE07078B4
:100ED00018F800207A5473783078491C5B1C03F0B2
:100EE0003F03421E73703270307808B1A942EED3CE
:100EF000A0686268904238BFA9420CD22368185C8F
:100F00007854A268491C521CA260F1E71520B07108
:100F100041F2020027E0A942F8D1B26C069C2946B2
:100F2000384600F027FFB06424B1F0682A463946FD
:100F300000F0EAFD079838B1F07878B1B0682B4638
:100F40003A46394600F0DEFFF07838B1B169F06911
:100F500028188842F06124BF0020F07070692D18B5
:100F6000756141F20300BDE8F0812DE9F8431E46AA
:100F70007368002B4ED00C4614F0030118BF41F2E9
:100F8000020048D115460746FFF777FE396E001D6F
:100F90006A18824221D300F1180399421DD28C466F
:100FA000844505EB010800F1180238BF84469045DE
:100FB000ACEB0101ACEB000088BF904604EB0109EB
:100FC000A8EB0C083844424649466830FFF710FE4B
:100FD000FF224146484600F0A5FFFFF755FE396E57
:100FE000001D884222BF6A18031D9A4209D3411A84
:100FF0006018026807F180010A60FF22042100F0F6
:1010000091FF21463368386E74682A46A047386ECF
:101010002D183D660020BDE8F283F8B5064606F1BE
:10102000400700200D46B8717870F87038710021C3
:101030004FF0FF3014463970797103F02003B86423
:1010400039627962BB70FF22182106F1680000F056
:1010500069FFFF22042106F1800000F063FFFF22F8
:10106000042106F1840000F05DFFBD60FC60882172
:1010700006F1900000F08AFF002086F81801FFF7C3
:10108000F4FD00B11DB1FFF7EEFD18B114B941F246
:101090000B00F2BD14B1F86800F020FD0020F2BD95
:1010A0002DE9F84FB4B083460D4605A80021002372
:1010B000002480E81A000592349A089141F203084E
:1010C0000692486B0990014645F6C17081420BD3E8
:1010D000C3E304980021F160B0600398DFF8FC17C7
:1010E00088424CD102223A71079834990DF1280AAE
:1010F000884280F095830BF1420739790BF184091E
:101100000BF148061529EFD8DFE811F02C008E030B
:10111000FE003900D1010502480196030502F101E4
:10112000050298010502F101AA03C5034803B503AE
:101130001700B8039A03C503D6E79BF818010028E7
:10114000D9D1099A1AAB05A95846FFF7A0FD00901E
:10115000009841F20601884200F02E830098404535
:10116000C2D067E300F0DBFB00F0DEFBB1D061E34F
:10117000B87838B10398DFF8601788424ED015224E
:101180003A716AE33878C10751D5787800284ED192
:101190000398DFF8481788421CBFDFF844178842DD
:1011A000EDD0DFF84017884200F08180DFF8381773
:1011B00088421FBFDFF834178842DFF834178842AF
:1011C000DDD0DFF83017884221D0DFF808178842D9
:1011D00072D0DFF82417884212D0DFF82017884237
:1011E0000CD0DFF8F416884214D0DFF814178842C8
:1011F0001CBFDFF810178842C1D010E0102272E740
:1012000011203871B1680020706131616CE71521DF
:10121000397176E0FFF727FD0028B0D142E01520B4
:10122000387103A800F0B5FE00286AD015E30398D2
:10123000DFF8AC16884220D0DFF8A816884233D0F9
:10124000DFF8A41688421DD0DFF8A016884216D019
:10125000DFF89C16884218D0DFF87816884228D02C
:10126000DFF87416884216D0DFF89416884210D042
:10127000DFF8901688420AD020E00B2233E70420E2
:10128000387131E7062139712EE70720F8E7092187
:10129000F9E70D20F4E7FFF7E6FC002804BF7878B3
:1012A0000028BAD10E21EEE778780028B5D11221B6
:1012B000E9E778780028B0D11321E4E703A800F02B
:1012C00068FEB8B10398142170643971039800F076
:1012D00062FE089038788106D6D5089800281CBF91
:1012E00041680029D0D058468847009000980028CF
:1012F000CAD0B2E278781521397110B141F20400F8
:101300008FE241F208008CE2F068082849D20021FF
:1013100001200191009000F019FB00F005FB49D17C
:101320009AF803000006B0F1407F04D01520387110
:1013300041F2090075E29AF805009AF8041041EAB2
:1013400000210291C90704D5387840F001003870B7
:1013500002E0FFF78AFC30B9FFF785FC0028D3D004
:101360000298C105D0D41520387141F20A0058E224
:101370001C220AA905F10800FFF74AFC287840F072
:101380000100287005F10800FFF784FC002803D055
:10139000002100F0C0FA002800F05381B368F06823
:1013A000984280F03B8200F0B1FA00F0C6FA00F0FB
:1013B000BBFADDD03EE2287840F0040028709AF8AD
:1013C0000E009AF80F109AF80C2000F0BBFA9AF869
:1013D0000D1040EA01201043A862687841072BD520
:1013E000EB208DF8280017218AF80110A6208AF832
:1013F00002005E218AF803100BF150000168C9F861
:1014000000100021F161F87840F00200F8703E9879
:10141000C4688CB1036804220AA90020A0473E9842
:101420003E9C08220368F069D4F80CC00CA908306F
:10143000E047F0691030F0610C203871F06808283E
:1014400037D200F063FA08230CAA00F077FA00F014
:101450006BFAB0D0EEE1287840F0020028709AF8DC
:1014600002009AF803109DF8282000F06BFA9AF811
:10147000011040EA012010436860B06808386862D3
:101480009AF806009AF807109AF8042000F05AFA21
:101490009AF8051040EA012010437FF470AEF97805
:1014A0000520387141F00101F9700020F061F06809
:1014B0000828BFF419AE00F029FA00F047FA00F04E
:1014C00033FAC8D0B6E19AF802109AF803009DF8F2
:1014D0002820090441EA00619AF8010041EA00214C
:1014E00011430291B068052824BF0298B061F068EA
:1014F000042880F0D38100F009FA00F01DFA00F012
:1015000013FAE0D096E10368F06952460AA9A047B1
:10151000F0695044F061B068F168814280F07E81EA
:10152000A0EB010ABAF1040F05A9584608D3FFF74A
:1015300060FC042808D205A95846FFF737FC6FE184
:10154000FFF757FC5045F6D3BAF1410F05A95846AD
:1015500028BF4FF0400AFFF74CFC504502D200F084
:10156000E7F98246BAF1040F0AAA05A924BF4FEA97
:101570009A004FEA800A0120019000905346584695
:10158000FFF790FC00F0D0F9BCD13879082803D1DE
:101590003E988468002CB6D1CAF10404BAF1040F55
:1015A00006D20AA8FF222146504400F0BBFCA24408
:1015B00039790A290ED13E99486818B100F0AAF984
:1015C00000283ED03E9B52460AA95846FFF7CDFC64
:1015D0000090A0E7052917D16878820714D53E9BB3
:1015E000D86888B1F069052817D20AEB00010729ED
:1015F00013D30AA9091D081A0168FF22C9F80010AF
:10160000042100F08FFC08E00C2984D168784107A0
:10161000DFD53E9AD0680028DBD03E983E9C5246EB
:101620000368F069D4F80CC00AA9E04770E7D9F85C
:101630000400002800F0348100F06CF9002840F02C
:101640002F811520387141F20C00EAE038788106CC
:1016500008D5002C1CBF2169002903D058468847B3
:10166000824601E04FF0010A00F062F95045FFF4B4
:1016700062AFB068F168A0EB010ABAF1410F05A9A9
:10168000584628BF4FF0400AFFF7B3FB824502D30C
:1016900000F04EF98246012001900090534600F080
:1016A0004CF900F041F915D13878810640F1F98004
:1016B000002C1CBFD4F808C0BCF1000F00F0CD8096
:1016C0004B4652460AA95846E04700900098002829
:1016D00000F0E780AEE0306C8B49884204D01522E0
:1016E0003A7141F205009CE0FFF7BDFA10B9012004
:1016F000E87002E0E878002840D0F87810F0030F96
:101700001CBFD4F80CC0BCF1000F04D02368042225
:1017100049460420E047B16900291CBF60680028E1
:101720002CD04FF0FF3102910BF18006042231469C
:1017300002A800F033FC40B1FFF7A6FA28B1314609
:10174000236866680422001DB04704220BF168017B
:1017500002A800F023FC88B1FFF78FFA23686668BF
:1017600014220BF16C010830B047FFF786FA2368AA
:10177000666804220BF16801001DB0470120A870C3
:101780000F2139714CE0FEF73DFD00908021019161
:10179000306801230BAA022100F084FBF0681028B6
:1017A0003CD20021012001910090102300F0C5F8E7
:1017B00000F0BAF8E7D03DE0152038713AE07068E3
:1017C00000F0A4F99BF8180128B10BF1B4010091C5
:1017D0000BF1940310E0FFF74AFA30B10998806BDF
:1017E00000F124010091031D06E0FEF709FD044607
:1017F000FEF704FD00940346706812AA0AA900F0DF
:1018000098F90090009830B10021E97015203871E6
:1018100041F2060005E00120E870B87001202FE5D4
:10182000002035B0BDE8F08F00F079F800F07CF8CA
:101830003FF49EAC0098F4E70020F061082122E517
:101840003878DDF8F89081067FF5F1AE706C00F025
:10185000A2FB089000287FF4EAAE41F20100E0E725
:101860003E9C00200190009000F066F800F05CF8CB
:101870003FF431AFDEE701207870CFE7B878002879
:10188000CCD1002101910090402300F056F800F0E7
:101890004BF894D0CEE741F20700C2E70A20EFE40C
:1018A000089CF068B1688842FFF4D0AECDF8F8909B
:1018B000089439788A06B1D5002C1CBFE268002A4A
:1018C000ACD03E9958469047009000980028A5D08B
:1018D000B0E70000F70A0AF7FC0404FCEB17A603C4
:1018E000EB17A65EF30B0BF3F40A0AF4F50909F5FE
:1018F000F60808F6F70909F7F90707F9FA0606FAEC
:10190000FD0303FDFE0101FEE320BBDE0121019189
:1019100000917047012105F10800FFF7ACB903AA57
:1019200005A95846FFF76CBA0090009840457047EB
:1019300005A95846FFF75DBA04230AAA05A9584627
:10194000FFF7B0BA000440EA0160704708230AAA12
:1019500005A95846FFF7A6BA10B50446B1F5027FAF
:1019600002D240F2052010BD4FF4027100F060F881
:101970000020607004F5C87204F5A47104F12C0015
:101980000023BDE81040FFF748BB1CB5044600919A
:10199000214604F12C00FFF783FB0028C4F8040261
:1019A0001CBF41F2070188420BD1A07838B1E07822
:1019B00010B140F2032016BD40F2022016BD40F2E5
:1019C000012016BD2DE9F04385B004460D46904632
:1019D00099460C9E01A8102100F02AF800273760D4
:1019E0001C21484600F024F801A8009043462A46EE
:1019F000214604F12C00FFF753FB2078810744BFF8
:101A0000606830602178C80705D51C2204F1080100
:101A10004846FFF7FDF8207805B0002814BF0020E5
:101A200040F20640BDE8F0834FF402707047FEE7D5
:101A3000002200F001BBFEE780B54FF40031234ADD
:101A4000116000F05AFB401E8041C00F02BDF8B586
:101A50001F4605460E461446082F10D201212020AD
:101A600000F022FC0121212000F01EFC0CB9012015
:101A7000F2BD15F0030F08BF14F0030F01D00020D2
:101A8000F2BD4FF400301149086023463246294622
:101A9000384600F08AFB401E8041C00FF2BD10B5F1
:101AA0000AB9012010BD10F0030F08BF12F0030F98
:101AB00001D0002010BD4FF40033044C236000F02F
:101AC0003EFB401E8041C00F10BD000068900040EA
:101AD00000207047704701207047FEE710B50446AC
:101AE0004FF40051064A1160022306480360204665
:101AF00000F098FC20460021BDE8104000F095BCA5
:101B0000689000406092004000F094BC014600F0F4
:101B10009CBCFEE77EB56B4600240025002683E8CA
:101B20007000019200916A4692E8380080E838001F
:101B300077BD2DE9F84104000E46AFB01746984630
:101B400018BF002E06D0002F18BFB8F1000F01D02B
:101B5000369D15B940F201604AE0062000901FA8AA
:101B60004021FFF765FF0FA84021FFF761FF4FF409
:101B70000050214908600323204803602022314699
:101B80000FA8FFF735F82022394617A8FFF730F8DD
:101B9000202241461FA8FFF72BF82022294627A81C
:101BA000FFF726F840221FA90CA8FFF7B3FF402239
:101BB0000FA909A8FFF7AEFF2022214606A8FFF7CC
:101BC000A9FF09A80AC803AA0CAC0AC203686E469A
:101BD00006A81360A0CCA0C6276890E80E000848AD
:101BE000376000F072FC0090009808B140F2046089
:101BF00030B0BDE8F0810000689000406092004085
:101C00000C0100004FF4017000F017B91CB54C48EE
:101C100000680002000E01280CD14A4801684FF408
:101C20008020494A106004234903484C23605CBF6C
:101C3000474A106047484FF4006101604269D1068D
:101C4000FCD400F08CFC00F0C9F808B900F0BBF837
:101C5000FEF7E4FA04000ED100F0C0F808B100F07D
:101C6000BAF840F2012000F0E8F84FF4017000F0FB
:101C7000E4F8002016BD00F0B1F808B900F0A6F8AD
:101C800000F0B9F8012802DD00F0A5F8FEE700F049
:101C9000C1F8314801E00098401E009000980128EA
:101CA000F9DA40F205418C42DFD140F20320DEE751
:101CB00080B5012100F057F82849086842060CD584
:101CC00000F0D2F840F20221401A04D0C01E02D027
:101CD000C01E012801D800F045F846F20400016852
:101CE00011F1010F05D14FF4027000F05DF800F022
:101CF00039F89DF8010060B14FF4C040FEF78AFD4D
:101D00008DF800009DF8000018B94FF4027000F043
:101D10004BF89DF8000090B100F060F808B100F0B9
:101D20005AF84FF4C0400E49086002461046016858
:101D300081F3088881F3098840688746FEE701BD82
:101D40000080E00F6480004064900040202001404B
:101D500064A000407040004000350C0094400040FA
:101D600008ED00E000218DF800108DF8011070479B
:101D70000020704770B50823094C2360094B0125EA
:101D80001D6000265E60DA609D6002E010F8014B85
:101D9000DC610A46511E002AF8D1186A70BD00BFE6
:101DA00064900040048008404FF000514A88088049
:101DB0004FF6F07002404AF6C0339A421CBF4FF211
:101DC0000F024A8070474CF23C3001E04AF6C030C6
:101DD0002249088070474FF20F00F9E71F490A882F
:101DE0004FF6F0704AF6C03302409A4201D101200A
:101DF000704700207047194800884FF6F0714AF686
:101E0000C03301EA00029A4202D100F00F0070478D
:101E10000020704730B5114801884FF6F0734AF63C
:101E2000C03503EA0104AC4206D101F00F020F2ACB
:101E300034BF491C1940018030BD80B5FFF7B4FFA5
:101E4000BFF34F8F06490A68064802F4E062024376
:101E50000A60BFF34F8F00BFFDE7000002000020C3
:101E60000CED00E00400FA0510B54FF00052508868
:101E70004FF6F0714AF6C03401EA0003A3421CBFDA
:101E80004FF20F03984201D1108810BD002804BF03
:101E90001088012802D140F2022010BD4FF40070DA
:101EA00010BDFEE72DE9F8430E46914680461C46DC
:101EB000089D099F4FF40051104A116002231048F9
:101EC0000360404600F05FFB3A462946404600F07A
:101ED0005DFB08F124000021016006750C224946D3
:101EE00008F13900FEF784FE08F14500210C220AB2
:101EF000017042708470BDE8F1830000689000407A
:101F0000609200403EB51C460292019100F1280506
:101F1000009500F1380300F12402214600F087FB10
:101F200037BDFEE762F30F2262F31F42401810F044
:101F3000030308D0C91A1FD3DB0748BF00F8012DDF
:101F400028BF20F8022D130030B41446154610396E
:101F500028BF20E93C00FAD8490728BF20E90C0037
:101F600048BF40F8042D890028BF20F8022D48BF43
:101F700000F8012D30BC7047C91818BF00F8012DBA
:101F8000CB0728BF00F8012D7047FEE70022FFF7BE
:101F9000CDBF0020704700207047FEE703000020FF
:101FA00013F0030F09D0521E22BF13F8010B11F8D2
:101FB00001CBB0EB0C00F3D07047121F22BF53F8D7
:101FC000040B51F804CB6045F7D0121D0AD200BAB9
:101FD0009CFA8CFCB0EB0C0038BF6FF0000088BF9F
:101FE00001207047521E22BF13F8010B11F801CBDC
:101FF000B0EB0C00F6D0521C08BF1046704730B44E
:10200000002513E050F8042BD30744BFA9F10103C6
:102010009A18091F042942F8045BFAD213468C0768
:1020200044BF15809B1CC90748BF1D7050F8041B96
:102030000029E7D130BC704700B500BF13009646B9
:102040009446103928BFA0E80C50FAD85FEA417CCA
:1020500028BF0CC048BF40F8042BC90728BF20F890
:10206000022B48BF00F8012B00BD000070B5804A6C
:10207000804B814C246865070CD4C60701D41C42F0
:1020800009D100EA04058D4208D0521EF1D16FF04B
:10209000020070BD2EE06FF0010070BD1C42FAD14D
:1020A000002070BD70B5754D6860E8680E46410748
:1020B00000D51FE056F8040B141F02E056F8040B7D
:1020C000241FA86044B108210820FFF7CFFF0100BA
:1020D000F4D00421296070BD042028600021212053
:1020E000FFF7C4FF010004D100212120BDE87040AA
:1020F000BCE770BD4FF0FF3070BD70B500F050F818
:1021000041F671315D4C01225F4BE568E1621A6076
:10211000606002262660002121202D0CFFF7A6FF1B
:1021200005F00105010003D100212120FFF79EFFEA
:102130000121544A11600DB10021E16270BD2DE909
:10214000F8438946144600F02BF84B4F3D6841F6A2
:10215000713180462D0C396201224B4B002005F075
:1021600001051A6009E0324649464046FFF79AFFEA
:1021700001000DD1B044B144A41B4CB108F5005688
:10218000760B7603A6EB0806B442ECD22646EAE7C5
:1021900001213C4A11600DB100213962BDE8F28392
:1021A0004FF40031364A116070472DE9F047DFF8EF
:1021B000DC800125C8F800504FF44026344F47F822
:1021C000206030264643334D002735446F60AF60B2
:1021D000AF614FF400372A4C276041F671342E4E20
:1021E0003769346334683F0C07F0010744F0010499
:1021F0003460012404FA00FC22E0B1603469640711
:1022000029D44FEA9E04641E240144F06054EC601B
:102210002A61224C6C61C8F820C0214CD4F800908F
:1022200029FA00F95FEAC97AF8D51E4CC4F800C053
:10223000C8F824C00424746071447244A3EB0E03F4
:1022400063B101F50054640B6403A4EB010E734504
:10225000D3D29E46D1E74FF0FF3007E03068400808
:10226000400030600FB1002030630020BDE8F087EF
:1022700080969800020001001C00034010000340FB
:10228000689000400C2003400C10034004100440F0
:1022900000400440580004400C0003401800034074
:1022A0003400044034200440002342090AD0012AAB
:1022B00008BFDFF82C3005D0022A0CBFDFF824302D
:1022C000DFF82430002900F01F0014BF03F580530D
:1022D00003F50053012101FA00F018607047000077
:1022E0006480004068800040608200402DE9FC4727
:1022F0008A461446984670B9002C43D00B990A6858
:102300003F2A0AD84868002818BF5FEA080905D1A3
:102310000FF24C1902E0424835E0C14602F03F0698
:10232000A218C6F140050A60A24202D24868401CC9
:1023300048600A9F96B1AC4210D32A465146B8195C
:10234000FEF756FC0120009043463A4649460020DD
:1023500000F0ECF9C146AA44641B00263F2C0BD9BF
:10236000A5090095434652464946002000F0DEF993
:102370000AEB851AA4EB851424B122465146B819FC
:10238000FEF736FC0020BDE8F6870000F8B586B001
:102390000C4615461E4640BB002102AF56F82130C0
:1023A0004A429200D21D00EBC300B85402A8104468
:1023B00056F82120C01E5209827056F82120520B77
:1023C000427056F82120520D027056F82100491C27
:1023D000400F0129E2D9327802F03F02382A34BF97
:1023E000C2F13802C2F1780201E00D4816E00C9FFC
:1023F000019600954FEA040321A10020FFF776FF24
:10240000019600952346082202A90020FFF76EFFDF
:10241000202221463846FEF7EBFB002007B0F0BD36
:1024200080AFFFFF6821FFF703BB0021016041601F
:102430000020704700F12803E0B50093019000F1FF
:1024400008030020FFF752FF0EBD80B50346009140
:1024500003F1280203F108010020FFF797FF02BDF6
:102460006A09E667BB67AE853C6EF372A54FF53A25
:10247000510E527F9B05688C1F83D9AB5BE0CD1951
:1024800080000000000000000000000000000000CC
:10249000000000000000000000000000000000003C
:1024A000000000000000000000000000000000002C
:1024B000000000000000000000000000000000001C
:1024C000686804EB8401884270477FB582B000F0F1
:1024D0003BF80446452C28BF01202CD2FFF7F0FF23
:1024E0001EBF06226243904207D10B99B1EB440F05
:1024F00004BF0E99B1EB440F01D007201BE0EB683D
:1025000001222146312000F050F900F020F80AA8FD
:10251000082307C80093234600F087F900F00DF860
:102520000A2000900DA907C9234600F07EF900F0AB
:10253000D7F900B1032006B070BD0C20009003A9AC
:1025400007C9234600F045B9054600F00FBA012639
:102550000196009695E80700234600F0D7B9FEF7EC
:10256000A9BBFEF706BC00007EB56B460024002523
:10257000002683E87000019200916A4692E83800D4
:1025800080E8380077BD2421FFF752BA70B50D46B8
:10259000044616462421FFF74BFA802E1CBFC02E9E
:1025A000B6F5807F02D06FF0710070BD2660F20832
:1025B0002946201DFEF71CFB002070BD78B589B0B0
:1025C0001446012902681D460CBF01260226802AF6
:1025D00018BFC02A05D0B2F5807F18BF6FF0710018
:1025E00023D1011DD20806A8FFF7BEFF1022214605
:1025F00003A8FFF7B9FF102229466846FFF7B4FF8A
:1026000000F0B6F988B9012E6A4603A906A802D1DE
:1026100000F004FA01E000F00BFA044600F0B6F90D
:10262000002C14BF6FF0240000200AB070BD002AF7
:102630002DE9F64F8FB014BF146800240290026891
:1026400000250E46802A18BFC02A05D0B2F5807F2B
:1026500018BF6FF071005BD1011D9946D2080CA81C
:10266000FFF782FF1022494603A8FFF77DFF01967E
:102670001A9E1B9FDDF8708001E000F04CF8019875
:10268000854241D2002CF8D1401B000924D04FEAEA
:10269000001A5246791909A8FFF766FF524608EB5F
:1026A000050106A8FFF760FF00F062F980BB03A8F0
:1026B000009003AB06AA09A90CA800F0CCF9834648
:1026C00000F064F9BBF1000F08BF554404D06FF06F
:1026D00024001DE000F01FF80198401BCFD0002C13
:1026E000F8D1029833464A460121FFF767FF0020E0
:1026F00041424944CA7B521CCA73D2B2002AE9D172
:10270000401C0F28F4D9E5E7109800B104600020C0
:1027100011B0BDE8F08F795D305D641C04F00F04EA
:10272000414008F805106D1C70470000F0B591B0ED
:102730001D4640BB16982023069280010790002476
:1027400004930894202209A8FEF752FA09AB0393D8
:10275000059400F00DF9C8B906A890C86E4690C659
:10276000076803A890E80E003760042000F0E6FA3E
:10277000044600F00BF944B9202209A92846FEF7C7
:1027800037FA002002E0024800E0024811B0F0BD34
:1027900080AFFFFF80ADFFFF002A00D170471CB55E
:1027A000049C009400F054FB16BD30B501B1491EE5
:1027B000524DAC68C4F30044002CF9D140EA01202A
:1027C000120702F080521043184340F00040286086
:1027D00030BDF7B51C460846844286B098BF2046F7
:1027E0000600079018BF002C1DD00E99444D002004
:1027F00005EB412505900494AF1B0397029606ABA9
:1028000081B000F05BF808BC03AF97E8070000F068
:102810005EFBA64207D2A21B281B09B00021BDE81F
:10282000F04000F04FBB09B0F0BD77B51C46134631
:10283000D8008DB0149D43BFCA1C9208920062005C
:1028400000F01BF801A86D0200F019FB2C4900F004
:1028500019F805F5213500F00CF8291B09A8FFF738
:102860009BFF09A800F00BFB05A901A813E0244871
:10287000411900960023224670470D9900260096C4
:1028800001A889E74919009600232246091B05A8DB
:1028900005F1984580E700F0BCFA10B070BD17B59F
:1028A00087B000F017F8029307AB03910021059160
:1028B00081B000F003F808BC03AC05E006CB684625
:1028C00006C019680160704794E8070000F0FFFA3D
:1028D0000AB010BD0C980B49049301EB40217047DE
:1028E0000949012008604868C0F300400028FAD177
:1028F00048684FF6F0710840704700000420024C11
:102900000082024C0080024C0820024C2DE9F84164
:1029100087B014460DF1100E0E9D0F9E019002938C
:10292000039400278EE80700984608FB07F00599F6
:10293000884218D21EB9022F18BF032F0CD00DF1F8
:10294000040C002D009743469CE8070002D1FFF7D6
:10295000A6FF01E0FFF73DFFE00002D401994144EA
:1029600001917F1CE1E708B0BDE8F0810069704784
:102970000E48016841F4005101600D48026842F0C0
:1029800001020260016841F002010CE007480168A1
:1029900021F40051016006480268520852000260AA
:1029A000016821F00201016000207047688000404A
:1029B000608200404368DFF8D820102B04D0182B29
:1029C0000ED0202B14D01CE01268D30113D502685E
:1029D000DFF8C0309A4216D10A6842F0400218E08F
:1029E0001268930107D50A6842F008020A60EEE710
:1029F00013685A0101D4012070470A6842F00402AA
:102A0000F4E7072070475B1C9A4205D10A6842F040
:102A100080020A60002141600020704738B500F054
:102A200014F801D4012032BD00920246002108E0D2
:102A300038B500F00AF801D4012032BD00920246F8
:102A40000121002000F0ABFA32BD0B46DFF8401048
:102A50000C68E50770477FB500F011F858BF0120FA
:102A600003D500F004F800F00FF804B070BD089C26
:102A70000293019200910346039402227047DFF80B
:102A8000104025686E0770470021002000F0BBBA97
:102A90000404024C800000207EB56B460024002513
:102AA000002683E87000019200916A4692E838009F
:102AB00080E8380077BD002A00D170471CB5049C1F
:102AC000009400F0C5F916BD2DE9FF4FB7B038AA44
:102AD00092E8380004A981E8380005466E1E964841
:102AE000062E00F2E980DFE816F007000C00110066
:102AF00016001B00200026000168CA0767D50121C7
:102B00001DE00268910762D5022212E001684A07BF
:102B10005DD5042113E00268110758D5082208E0AA
:102B20000168CA0653D5102109E0026891064ED506
:102B30002022019204E001684A0648D54021019113
:102B4000449C02A90022C1E90022012C02D0022CDF
:102B500037D067E00068C10339D501984FF003080A
:102B600040F4C060019039926A1E062A58D8DFE806
:102B700002F0682624222004220040261320009020
:102B80004FF00053042201A90FA8FFF794FF059FFF
:102B9000069B0499CDF8008043F000533A4600F0BC
:102BA00057F94FF0000BDA46DDF81481DDF8189183
:102BB00059E03026E2E72026E0E71C26DEE714266F
:102BC000DCE701688A0302D50068C10301D4012053
:102BD000AEE0DDF8E480B8F1000F04D0C8F10008E1
:102BE00008F0030806E0042202A904A84FF0040834
:102BF000FFF752FF01994FEA082040F0A30841F483
:102C0000E0610191691E06290AD8DFE801F01A087F
:102C1000070605040600B0E7CBE7CCE7CDE7CEE733
:102C20000026ABE7681E4FF063080628F8D8DFE8F7
:102C300000F00807060605050600F1E79DE7BAE77C
:102C4000BDE710269AE70C2101FB0BF1032308F1E5
:102C500004025258414400938B68096892440BF176
:102C6000010BFFF728FFCB45EDD3032C26D1691EBE
:102C700006290ED8DFE801F00B080606040406005A
:102C8000402107E0202105E014213F220FE0102120
:102C9000FBE700216D1E032DF7D92D1F012D02D951
:102CA000AD1EF2D001E07F2201E04FF0FF328F42F3
:102CB00008BF1AEA020F01D0072039E0BAF1000F6D
:102CC00009D1032100910023002202A94FF0040A38
:102CD00000F0BEF808E01AF0030F1ABF0AF0030A6A
:102CE000CAF1040A4FF0000AA0F11004204600F0D7
:102CF000C6F85146204600F0CDF848983446499B26
:102D00008642479988BF044600200090224607A8C3
:102D1000FFF7D1FE002100910023321BFFF7CBFE0D
:102D2000103800F0ACF807A90FA800F072F80020E6
:102D30003BB0BDE8F08F00000C04024CFEB586B03D
:102D400006A914C903AB012514C30C6806A90EAE6D
:102D50001C600EC90327029501960097FFF7B4FE89
:102D600009B0F0BD0160704738B50C4601463148E6
:102D7000FFF7F8FF304D21462846FFF7F3FF032009
:102D8000686231BD0FB470B50A9C1546A14238BFC8
:102D90000C46E80002D5E41CA408A400254E194600
:102DA0003046FFF7DFFF099824F0704405F0E04556
:102DB00000F0E040204340F00050B0600020F060A0
:102DC00004991D4E30462C43FFF7CCFF44F00054CD
:102DD000B4600020706270BC5DF814FB17483F219E
:102DE0004161102202600323C361704714480168E7
:102DF0008A07FCD470471348016811F0240F11BFF3
:102E0000406941691048014202D001210F48016028
:102E1000704780B5FFF7A8FF08483F2141611022A5
:102E200002600323C361016A8A07FCD4BDE8014044
:102E3000E1E700000000024C1000024C1C00024CB4
:102E40003C00024C2800024C1000FFFFFCFFFF3F3B
:102E500010B500F110044460016022F070428260FD
:102E60000029816804D003F070430B43836002E0C3
:102E700041F0804181600299C160103010BD012194
:102E80004160C26842F02002C260816841F0005196
:102E900081607047C268D30658BFC268C36803F038
:102EA0000F035B1E02D09B1E012B08D8C26801F0E5
:102EB0001F0142EA0122C26082688918816070475E
:102EC000FDF796BE13460A461946FFF72BB80FB416
:102ED0007FB5510038D40E9C099D0D98A54238BF8E
:102EE0002C46C10003D40C99A14238BF0C465CB3F8
:102EF000102C11D302940BAB81B000F028F808BC61
:102F000008AC94E80700FFF73DFFFFF767FFFFF706
:102F10006DFFFFF770FF17E0C00010D50026A64236
:102F200012D20B98AA1B042A0168089828BF042211
:102F3000009169463044FFF7C3FF361DEFE708985C
:102F400022461946FFF7BCFF7FBC5DF814FB06CB99
:102F5000684606C019680160704700007EB56B4680
:102F600000240025002683E87000019200916A4643
:102F700092E8380080E8380077BD002A00D1704719
:102F80001CB5049C0094FFF763FF16BD80B5009349
:102F90008B6813434A680968FFF7EFFF02BDFCB571
:102FA0008BB05C6814F00F0F04D11CB1129D6E68D9
:102FB000A64201D0072018E0DFF8186196E880509B
:102FC0000FF2081454F8211008AC84E8805008AEC1
:102FD00007960696029508AF019308AD41F48071FB
:102FE00005940496039700F054F80DB0F0BD0696D2
:102FF00005960497039602920193009108AB22462E
:10300000294600F069B82DE9FC438BB000F022F8A6
:1030100045F0300511F00F0F0CD159B1159A5668D3
:103020008E4202BF16994E68102E02BF179E776817
:10303000102F01D007200AE0DFF898C09CE8004379
:10304000079608AF08AE87E80043FFF7D0FF00F00F
:1030500032B800001C46149B0FF2700555F8215041
:1030600002A656F822100D4359687047000100006F
:103070000002000000040000000800000010000032
:10308000002000000040000000800000000001005F
:103090000294009508AB1FE001D007200BE0DFF899
:1030A00034C09CE80043079608AF08AE87E80043A9
:1030B000069600F003F80DB0BDE8F083059604977E
:1030C000039601930294009508AB05E00000000010
:1030D00001000000400000002DE9F24FCEB0044690
:1030E00015469A4604224EA913A8FFF737FF95E824
:1030F0004C000CA9002C81E84C0040F0D0804EA977
:103100000CA8FFF757FC002840F0C680599D5B9E35
:10311000DDF870B195E80E0009A85A9C80E80E0011
:103120007068DBF804606F68C0F11000861B5D9862
:10313000C7F1100706F00F06D0F80480A06807F06A
:103140000F07C8F1100808F00F08C10004D5606827
:10315000C01C800880006060DDF87891D9F8080014
:10316000C10006D5D9F80400C01C80088000C9F849
:1031700004005B9800214268DBF804008218B21852
:1031800006A8FFF7EBFE6268002103A800F089F8AB
:10319000D9F804200021684600F083F80FA8102118
:1031A000FEF746FC6868002802BF5D994868002861
:1031B0000DD15B994868002804BFDBF804000028A3
:1031C00005D110220FA909A81027FFF7C7FE5F9DA0
:1031D00011234FF0005213A92EA8FFF7D7FE40F697
:1031E00011034FF000520CA9FFF7D0FE589942F698
:1031F00011034FF00052FFF7C9FE44F611034FF0E0
:1032000000525146FFF7C2FE5B9941230022FFF7AF
:10321000BDFE360246F041034FF000525946FFF71B
:10322000B5FE3F0247F001034FF0005209A9FFF736
:10323000ADFE4FEA082141F001035D994FF00052C5
:10324000FFF7A4FE1038FFF71AFE0023002206A99C
:1032500016A8FFF79BFE002300222146FFF796FEEB
:103260000023002203A9FFF791FE00230022494614
:10327000FFF78CFE002300226946FFF787FE00233C
:1032800000222946FFF782FE1038FFF7F8FD16A945
:103290002EA8FFF7BEFD00204FB0BDE8F08F07203D
:1032A000FAE7C2F1100202F00F02FFF757BE00006A
:1032B0000448054908600548026842F4700202604B
:1032C000704700000000000008ED00E088ED00E01D
:1032D0002DE9F04399B004460D4605A85021FEF7AC
:1032E000A7FB00F0E1F86846FDF706F803984FF0F9
:1032F000FF36022809D2002020600120A8423CBFEE
:1033000044F82060401CF9D364E0A84238BF40F282
:10331000045060D3FCF77EFF804604980C2205A978
:10332000C7684046FDF7CFFC4744002853D10598B5
:10333000DFF86C91484522D00C2205A93846FDF7EC
:10334000C2FC002847D10598484507D00020A84274
:103350003CBF44F82060401CF9D33FE0079A05A920
:103360003846FDF7B0FC0498C1684046FDF7E1FC23
:1033700088BB079A05A94046FDF7B7FC58BB079ADA
:1033800005A94046FDF79FFC0799324605A8FEF7C0
:10339000F1FC4449884207D00020A8423CBF44F8D1
:1033A0002060401CF9D319E0079808AA103880085B
:1033B000A84288BF2846002104E052F8213044F892
:1033C0002130491C8142F8D3A8423CBF44F8206018
:1033D000401CF9D3002019B0BDE8F08340F205503D
:1033E000F9E7F0B599B005460C4605A85021FEF75F
:1033F0001FFB50212A4E012707910596069700F0E2
:1034000053F86846FCF778FF0398A04207D30228D8
:103410000AD22868002818BF10F1010F02D040F22C
:1034200004503AE0002038E0FCF7F4FE0646049829
:1034300008A9C768BF19112C28BF1024002004E078
:1034400055F8202041F82020401CA042F8D34FF02E
:10345000FF3002E041F82400641C102CFAD302462D
:103460004C2105A8FEF786FCC04318900498C1685B
:103470003846FDF75EFC80B9502205A93846FDF7B5
:1034800034FC50B90498C1683046FDF752FC20B9AD
:10349000502205A93046FDF728FC19B0F0BD000008
:1034A00039528FE1E320BBDE68461421FEF7C0BA33
:1034B00030B595B00446FFF7F7FF6846FCF71CFFF0
:1034C000039D022D20D3294605A8FFF701FF002800
:1034D0001CBF40F20551884218D1002005A902E026
:1034E000A2420ED0401CA8420ED251F8202012F168
:1034F000010FF5D141F82040294605A8FFF771FFDB
:1035000004E040F2035001E040F2025015B030BD3B
:103510004EF68851CEF20001086840F47000086051
:10352000BFF34F8FBFF36F8F4FF00070E1EE100AC3
:103530007047000000F00DF8002801D000F00CF8F2
:10354000AFF300800020AFF30080FEF75FFB00F0D8
:1035500017F801207047000010B507497944183169
:10356000064C7C44163404E00A68081D1144884760
:103570000146A142F8D110BD4400000050000000F7
:1035800000F000B80746384600F002F8FBE70000FC
:103590002021090326311820ABBEF9E780B5FFF7DB
:1035A00087FEFEF785FBBDE8014000F000B8AFF3F1
:1035B0000080FFF7ADFFFFF7BDFF000043EAFFFF0C
:1035C0000400000080000020000000000000000057
:1035D000FFFFFFFFFFFFFFFFFFFFFFFFFFFFFFFFFB
:1035E000FFFFFFFFFFFFFFFFFFFFFFFFFFFFFFFFEB
:1035F000FFFFFFFFFFFFFFFFFFFFFFFFFFFFFFFFDB
:10360000FFFFFFFFFFFFFFFFFFFFFFFFFFFFFFFFCA
:106000000080002075A1000071A1000071A10000B6
:106010006791000071A1000071A1000071A1000052
:1060200071A1000071A1000071A1000071A1000028
:1060300071A1000071A1000071A1000071A1000018
:1060400071A1000071A1000071A1000071A1000008
:1060500071A1000071A1000071A1000071A10000F8
:1060600071A1000071A1000071A1000071A10000E8
:1060700071A1000071A1000071A1000071A10000D8
:1060800071A1000071A1000071A1000071A10000C8
:1060900071A1000071A1000071A1000071A10000B8
:1060A00071A1000071A1000071A1000071A10000A8
:1060B00071A1000099E9000071A1000025F4000021
:1060C000D5F30000D1F3000041EB000021F4000003
:1060D000D9F30000F9F30000DDF3000079F40000CB
:1060E00059D60000BDD6000061F4000071A1000087
:1060F00071A1000071A1000071A1000071A1000058
:1061000071A1000071A1000071A1000071A1000047
:1061100071A1000071A1000071A1000071A1000037
:1061200071A1000071A1000071A1000071A1000027
:1061300071A1000071A1000071A1000071A1000017
:1061400010B5054C237833B9044B13B1044800E073
:1061500000BF0123237010BD1801002000000000C3
:10616000F844010008B5034B1BB10349034800E0A4
:1061700000BF08BD000000001C010020F844010021
:10618000154B002B08BF134B9D46A3F5803A002109
:106190008B460F461348144A121A09F0CCFF0F4BD6
:1061A000002B00D098470E4B002B00D098470020C2
:1061B000002104000D000D48002802D00C4800E02A
:1061C00000BF09F089FF2000290003F035F909F02C
:1061D0006FFF00BF000008000080002000000000EA
:1061E0000000000018010020501C002000000000EA
:1061F0000000000037B50446684680E80600251D0B
:1062000003C885E805002373069B2361BDF81C3095
:10621000A38200232360084B1A6812B91C6004E0B3
:106220000A4611680029FBD114609888013080B2B9
:10623000988003B030BD00BF3807002007B5037950
:10624000054A0193036806CA009308300223FFF74A
:10625000D1FF03B05DF804FB9804010070B5282558
:106260002B68ADF50C7DB3F5C04F05D34FF4017429
:1062700020460DF50C7D70BD1B6B002BF6D05B6AC4
:106280004FF40B7201A90020984704460028EFD173
:1062900040F201262B68B3F5C04FE7D21B6BB3F574
:1062A000C04FE3D29B6A002101A89847B042F1D0C9
:1062B00040F20323984218BF0446D9E730B541F2B3
:1062C00068024FF400340F4B9C5041F671321C6F42
:1062D00003F52033C4F3033404FB0000DD690A4CEA
:1062E000DA639A68A04205F4803522F4401203D99B
:1062F000012918BF42F480129A600DB10022DA63BE
:1063000030BD00BF00800040005A62020D4BD3F840
:10631000403103F00303022B0BD0032B0BD0012BD6
:106320000DD109234FF4004200B1026001B10B709E
:1063300070470823F6E70A234FF47A72F4E7002344
:106340001A46F1E7008000400D4BD3F8203103F0EE
:106350000303022B0AD0032B0BD0012B0CD10523F6
:10636000084A00B1026001B10B7070470323064A6E
:10637000F7E70223054AF4E700231A46F1E700BFD6
:1063800000800040C0EA210100F04902002D3101E7
:106390000D4B10B4D3F820320A4603F00303012B4F
:1063A0000AD0022B0CD008B1002303600AB10023ED
:1063B00013705DF8044B70475DF8044BFFF7C4BFE2
:1063C0005DF8044BFFF7A2BF00800040114BD3F8EB
:1063D000243103F00703013B052B18D8DFE803F055
:1063E000030C11140A0F05230B4A00B1026001B11E
:1063F0000B7070470623F7E70323084AF5E70423E9
:10640000FBE70223064AF0E707230022EDE700231B
:106410001A46EAE700800040C0EA210100F0490284
:10642000002D3101094B0022996C30B5DC6C2346FC
:1064300042EA0104220C82701A0A210AC2701A0C64
:106440001B0E047041700271437130BD0080E00F7B
:10645000202A0B681EBF4FF0FF3191408B43590833
:1064600001F055315B1A03F033319B0803F03333ED
:106470000B44017803EB13130A444FF0013103F08E
:106480000F334B43A2EB13630370704773B50026C1
:10649000044602AD05F8016D011D1B222846FFF7D9
:1064A000D7FF60689DF80730B3EBD06F03D120F0C1
:1064B000784002B070BD28461B2204F108018DF817
:1064C0000760FFF7C5FFA0689DF80730B3EBD06FFA
:1064D00001D1C043EBE74FF0FF30EAE74BF29A22DD
:1064E000036810B5B2EB134F044611D19BB2012BD8
:1064F0000ED1FFF7CBFF431C0AD04FF6FF72E068C6
:10650000030C93420AD180B2C01A18BF012010BDFB
:10651000236801330CBF03200420F8E70220F6E7CC
:1065200037B5054601F10C04436901A90122204653
:106530009847BDF8043002A941F8083D0122AB6933
:106540002046984703B030BD2DE9F043054689B099
:106550009946036908460E461746984704460028A0
:1065600067D1D9F804304FEA53285FEA580804F19C
:10657000010366D199F8032099F802301203DB0277
:1065800003F4006302F480521A43B9F80030640344
:10659000C3F30A03134404F460441C442B4B6FEA16
:1065A0000444039327F07843FF431B2202A901A868
:1065B00002938DF80480FFF74BFF9DF80420029BA7
:1065C00008A843EAC26300F81D8D1B2201A927F029
:1065D000784704930197FFF73BFF9DF80320019B49
:1065E0006FEA144443EAC26305934FF0FF3308A9EE
:1065F00041F8044D06930122AB6906F1100098475B
:10660000AB690446012205A906F108009847AB6969
:10661000002818BF0446012204A9301D9847AB6921
:10662000002818BF0446012203A93046984750B9F4
:106630001CB131462846FFF773FF204609B0BDE87C
:10664000F0831C4691E70446F3E700BF01009AB2CD
:10665000036803F07F03012B03D8406820F07C40DF
:106660007047072B8CBFD81F0020704741F268038A
:106670004FF400311E4A70B5D15041F671331D4CB4
:106680000122E669E36341F20C03E25002236061F8
:10669000054623610021212006F4803609F00CFE16
:1066A00018B90146212009F007FE42F20C0301222D
:1066B000E2500EB10023E363431C02D018B10E4830
:1066C00000E00E4870BD0E4B9B680A3303F01F02BA
:1066D0000123934023F003032B44AB4201D100205C
:1066E000F0E755F8042B0132F7D00648EAE700BF7F
:1066F000008000400000034024E000F021E000F0B2
:106700000080E00F0EE000F07047000041F67132AB
:10671000074B0121DA6342F20C02995000224FF438
:106720000031DA6342F26803024AD150704700BF79
:10673000000003400080004041F268034FF4003144
:10674000054A0020D15041F67132044B0121DA6331
:1067500042F20C0299507047008000400000034054
:106760002DE9F0418646406800283BD0DEF80070F5
:10677000904600243E4657F834500134C5F3130CBC
:10678000013501D0614532D0844206F10806F2D1CC
:106790003868013031D0002507F1080606E057F8C7
:1067A00035203046013206F1080627D00135A542D2
:1067B000F5D1032B16D0DEF800703868C0F307500F
:1067C000032823D0002407F1080608E057F8340016
:1067D000B446C0F30750032806F1080617D0013469
:1067E000A542F3D101238EF80830BDE8F08141EADB
:1067F0000351C6E90018BDE8F0813846C1F3130122
:1068000041EA0353C0E90038BDE8F081BC46C1F35A
:10681000130141EA0353CCE90038BDE8F0810023BD
:106820004FF0FF3230B544689C4202D1002303721E
:1068300030BD016801EBC30541F833206A600133C4
:10684000F2E70000EFF3108272B6034B1A600368A0
:106850000846DB68184700BFD40D002070B500253E
:10686000044686B00562E369AB4202D8206A06B0EE
:1068700070BD666C2068E36B05225B6901A906FBAD
:106880000500984701A8FFF729FE012898BF236A51
:1068900005F101059CBF01332362E4E7F7B5074624
:1068A0000E460D467B6C86EA05045B421C40A5EB58
:1068B000060001D003B0F0BDFB6B01225B6901A9AA
:1068C00028469847019B013301D10435EAE7204669
:1068D000F0E7F0B5002504462E4687B0E369B342E1
:1068E00002D8284607B0F0BD2368676C052207FB75
:1068F0000637E36B01A95B693846984701A8FFF7A3
:10690000EDFD012809D807F114012046FFF7C6FF65
:10691000636C143B834208BF01350136DEE7F0B5F6
:10692000046806460C1B416C0025B4FBF1F487B0EB
:10693000F36930685A1E9542776C06D3716C3068E3
:1069400001FB0400143007B0F0BD0134B4FBF3F1D7
:1069500003FB1144F36B05225B6901A907FB0400EB
:10696000984701A8FFF7BAFD0128E7D90135DFE70D
:106970002DE9F04F144607460E469946C36B89B081
:106980005B69012205A96068DDF848809847FB6BC8
:1069900001225B6904A930469847059B5A1C06D121
:1069A0000020A360A075607509B0BDE8F08F0121DB
:1069B0004FF0000EA175217E049A04EBC101CE6157
:1069C000A1F820E0606802F07F05B042C2F3D31C5A
:1069D000E9B20CD14FF0FF33C4F800C02175A360B9
:1069E000237D043B022B20D80020A075DCE7206823
:1069F00003F07F036045207D18BF84F816E08842CD
:106A00001CBF0020A075012B8CBF00200120012994
:106A10008CBF0021012188421CBF0021A175012DDE
:106A200000F2D280012BDBD9D1E002F07F02012AF3
:106A30000FD8FB6B02225B6906A93046984706A86F
:106A4000FFF706FE237D032B69D8DFE803F06363BD
:106A5000040904A8F4E7CC21227E04EBC2021184CD
:106A6000684AD35C049D88F8003005F07F02012A53
:106A700088BF0025237E98BFC5F3C16504EBC3031F
:106A8000012A83F82250B3F820A000F2A380FB6B08
:106A900002225B6906A93046984700230DF1200BBE
:106AA0000BF8113D202206A95846FFF7D1FC1A2207
:106AB00007A9FFF7CDFC9DF80F30079AB3EB926F53
:106AC0000CBF0123002308226375637D03B9A375FE
:106AD000A37D9BB1BAF1000F15D07B6CB018594261
:106AE00086EA000C1CEA010F1CBF0021A175591E8B
:106AF00001405B1A9A4584BF0023A37594F816B031
:106B0000BBF1000F30D095B9E37D002B75D14FF06C
:106B1000000B16E0227E04EBC2021084A0E7227E66
:106B2000062B04EBC20210849AD901239AE70123B1
:106B300094F819B0E375BBF1000F24D19D4228D120
:106B400065762AF00300304410441AF0030F7B6C82
:106B500018BF04305B4286EA0002134203D031467C
:106B60003846FFF7DCFEA060A27D12B123695344D2
:106B70002361237E012B0ED801332376B9F1000F58
:106B80000CD1A07D10E7012D37D0032D08BFA376CF
:106B9000BDE79B46D5E70023A375F2E7002AF0D0B6
:106BA000E37D002BEDD0BBF1000FEAD1032DE8D03F
:106BB000A1684B1CE5D0CDF8008001232246384661
:106BC000FFF7D6FEA075DCE7012B3FF609AF0023E7
:106BD000A37505E700231B2204A906A88DF8183029
:106BE000FFF736FC9DF81830049AB3EBD26F0CBF58
:106BF000012300230422637567E7A27D4FF0010B98
:106C0000B4E700BFFA02010013B50C46002100935F
:106C10002176134661682246FFF7AAFE18B1E37D8C
:106C200003B1A07EA075A07D02B010BDF0B50546F1
:106C3000002687B0EC69013CB44203D80C462046DC
:106C400007B0F0BD01B14C1E6F6C2868EB6B0522DC
:106C50005B6901A907FB0400984701A8FFF73EFC08
:106C60000128ECD901362146E4E7F0B504460D468B
:106C7000466CE36B006887B05B69052201A906FBDF
:106C80000500984701A8FFF729FC012804D801A8AE
:106C9000FFF7FCFB07B0F0BD29462046FFF7C6FF13
:106CA0000646676C2068E36B05225B6901A907FB58
:106CB0000600984701A8FFF7E9FB431CEAD0B5425C
:106CC00038BF0130E6E74369416CDA1D1439B2FB85
:106CD000F1F28069013203EBC202043000EB4200A2
:106CE000DA1CB2FBF1F203EBC2030333B3FBF1F3A3
:106CF000023301FB03007047214BD3F8F821024017
:106D00001CD1F0B4D3F8FC5103F5FC74641BA4103F
:106D1000022CD3F8006212D0032C29D0012C1AD0F7
:106D2000184C05F10C026468C5E90040C3F8FC2169
:106D3000A96033680C333360F0BC7047704704229D
:106D4000104C6468686098182C601960C3F8FC01E6
:106D50003260F0BC70471A4608240A4F7F682F60E3
:106D600042F8080B5960C3F8FC213460F0BC70474E
:106D7000044C6468A960C5E90040C3F8FC31E7E74A
:106D8000A8150020001000E0837DDB0701D5808A74
:106D90007047D0E901239B1A44BF828A9B1898B29E
:106DA00070470000044B5A6D22B95865A3F858107B
:106DB0000120704700207047D80600200A20D0B577
:106DC0000B4CE38C584308F0D7FE0646A08C0F46C8
:106DD00008F0D2FE0022074B08F038FF02460B46AF
:106DE0003046394609F05CF809F042F92083D0BDFD
:106DF000D80600200000F43F40F2E243074A10B5F5
:106E00001468584303FB0141536800F5807001EB9F
:106E1000500118441160506010BD00BFD80600201A
:106E20000022134670B58AB0D910415C03F0070404
:106E30002141CC0742BF0AA9891801F8283C03F177
:106E4000010348BF0132252BEED100230D4DD9108F
:106E5000415C03F007042141C90707D5E91881F80F
:106E60002A300133252BF2D10AB070BD93FBF2F129
:106E700002FB11310AAE314411F8286CEC1884F889
:106E80002A60EEE7D8060020024BD86880B2800264
:106E9000704700BF0080E00F0C4B10B50C4CE41A9B
:106EA0000C4B1C4424F4FF5424F01F04FFF7ECFFA8
:106EB000A04202D80024204610BD2046FFF70EFB5A
:106EC0000128F8D904F50054F0E700BF10000020B5
:106ED00014010020436501007FB502466D460D4B4D
:106EE00003F110062C4618685968083303C4B342EE
:106EF0002546F7D1531E04A90F3211F8014D13F89E
:106F0000010F844204D19342F7D1012004B070BD37
:106F10000020FBE7C802010070B5154D286810BBC2
:106F2000144B154CE41A154B1C4424F4FF5424F064
:106F30001F04FFF7A9FF844214D2666BA6B1FFF7C6
:106F4000A3FF864210D2FFF79FFF06F14003834262
:106F50000AD83046FFF7C0FF30B1F36933F00803B9
:106F600002D02C60286870BD04F50054E1E700BF32
:106F7000980100201000002014010020436501004A
:106F8000BFF34F8F0549064BCA6802F4E062134312
:106F9000CB60BFF34F8F00BFFDE700BF00ED00E007
:106FA0000400FA0528231B68B3F5C04F05D21B6BFC
:106FB000B3F5C04F01D2DB6B184740F201107047A8
:106FC00028231B68B3F5C04F05D21B6BB3F5C04F28
:106FD00001D29B6B184740F20110704728231B68B1
:106FE000B3F5C04F03D21968064A914203D000237B
:106FF000037083607047012202709A689B69426047
:10700000F7E700BF07B0CD5E10B50C4630B90448B5
:10701000FFF7E4FF034B23600423A380002010BD8F
:10702000F4010020F801002010B508B3114B1A68D4
:10703000918881421CD399880024814281BF01211B
:10704000126899809A6099889A682AB904B19A60FE
:107050004FF6FF71998009E0884204D0013112682F
:1070600089B20124F1E70CB198809A60104610BDF6
:107070000022FBE74007002037B50D461446FFF716
:10708000D3FFD8B10369828A63B14FF6FE718A4299
:1070900008D1002069460090ADF80400984738B147
:1070A00003B030BD2B602280286848B92080F7E704
:1070B000009B2B60BDF804302380F5E70120EFE74B
:1070C0000020EDE737B50D461446FFF7ADFF70B170
:1070D000036973B14FF6FE72818A914209D100951E
:1070E000ADF8044069460120984703B030BD012047
:1070F000FBE70E20F9E7000037B504460379124A92
:107100000333019300F14403009306CA02231430B1
:10711000FFF770F8228A237A0192E26804F12C00CA
:10712000009294E80600FFF765F80546237AA4F874
:10713000450084F844302279216804F1470008F0C2
:10714000EFFF284603B030BD9004010070B50E4C2F
:107150000E4B04F1100206460D4692E8030083E848
:1071600003001846FFF76AF80222094B18341A7216
:1071700094E80300DE6083E803001D821846BDE842
:107180007040FFF7B9BF00BFC802010040150020E2
:107190002005002010B5044644EA010313F0030360
:1071A000084609D1934201D1002010BD54F82310A4
:1071B00040F823100133F5E79200214608F0B0FFB4
:1071C000F2E72DE9F041054616468846FFF7DCFD5B
:1071D000AB8A181A80B2864228BF064637465FB986
:1071E0003EB1D5E901329A4202BFAB7D43F00103C3
:1071F000AB753046BDE8F081AB8A2C68A8681C44AA
:10720000241AA3B2BB428CBF3C46A4B222464146DC
:1072100008F086FFAB682968AA8A23440A44A04480
:107220009342A7EB0404AB60A7B228BFA960D6E7DE
:1072300070B5044615461E4611B3FFF7A5FDA38A97
:10724000181A80B2012829D9E37D63B1E368628A04
:107250001A70120A07D02068A18A013301448B42B8
:1072600028BF0346F4E700236382A3680222E36099
:1072700004F112012046FFF7A4FFE37D0133E3751B
:10728000324629462046FFF79CFF638A0344638207
:10729000E37D13B9238A0344238270BD0020FCE7F9
:1072A0002DE9F041164605468846FFF76DFD8642FA
:1072B00028BF0646B6B237464FB92EB1AB7DDA07C6
:1072C00044BF23F00103AB753046BDE8F081AB8AC3
:1072D0002C6869681C44641AA3B2BB428CBF3C464C
:1072E000A4B22246404608F01BFF6B682968AA8AB0
:1072F00023440A44A0449342A7EB04046B60A7B262
:1073000028BF6960D8E770B51E46038A0446154653
:10731000EBB9C27DDAB10123013A0B70C27500F1FD
:1073200010010222FFF7BCFFE37D9BB1228A2946B0
:10733000B24228BF32462046FFF7B2FF238A1B1A0B
:107340002382E37D13B9638A1B1A638270BD002315
:107350000B70EBE7638A2382E8E7000070B50D4607
:10736000A8B9FFF7D9FD446BFFF7D6FD58B1234606
:10737000084C03F14006224618685968083303C2D6
:10738000B3421446F7D1044B2B600423AB8000209A
:1073900070BD00BF9C010020BC01002038B5202238
:1073A00004460D460C30002108F0C5FE00234FF0C6
:1073B000FF32A375C4E90025A260E3756376A37666
:1073C000237638BD2DE9F04F0E4600258BB00446DC
:1073D0004FF0FF311046C6F3130917469A468DF851
:1073E0001350FFF7DBFF4E456BD12B46E1688B4214
:1073F0000DD0A26802EBC30052F83320551C0DD00B
:10740000C2F31302914509D141684D1C08D1237C78
:10741000002B58D147480BB0BDE8F08F0133E6E7A9
:107420003846FFF7BBFF0DF1130301223946204612
:10743000FFF7EAFB0028EAD09DF813308AF8003005
:107440000020E8E72368ED1A636CB5FBF3F542E032
:107450004046FFF7A3FF0DF11303029A4146204671
:10746000FFF7D2FB8646D8B1B11C03D0D8F8003064
:10747000B34215D19DF813302F4A8AF800303B46AD
:1074800002F1280B9446BCE80300DC451860596003
:10749000624603F10803F5D1F346DCF800001860FA
:1074A000D8F8081032E0BBF1000FB3D04E45C7D179
:1074B0009AF800307A68314604F10800FFF750F975
:1074C000BEE7B31CA3D1E56A681CBBD1616A204644
:1074D000FFF7ACFB0546B31C18BF0123DFF858804B
:1074E0000293636A626C0393236805A902FB053B60
:1074F000E36B05225B695846984705A8FEF7EEFF47
:107500000BF1140319464FF0000B01934A1C05D0F0
:10751000636C019A5B424A40134299D02946204647
:10752000FFF784FB039BAB42BDD0BBF1000FBDD185
:107530000546D6E70BE000F0F00E00202DE9F04FF5
:107540004FF0FF33002589464FF6FF71044600F1E6
:10755000080687B0C0E90913C362056205633046B7
:10756000FFF75DF92046FFF779F900285BD14FF668
:10757000FF7BD4F824800027D84514BF454600255A
:10758000E3699F4252D32046FFF768F9002833D1C0
:10759000B34D2046FFF79DF923E12368E26B606C51
:1075A000576901A9052200FB0530B84701A8FEF77D
:1075B00095FF0128074603D0C31EDBB2012B12D86A
:1075C00029462046FFF751FB0246012F2168676CD0
:1075D00008BF0132434607FB0511E06BFEF7B4FF1D
:1075E0002046FFF73BF90135E3699D42D5D320469C
:1075F000FFF734F90028BAD000254FF0FF384FF6D6
:10760000FF73C1462F46C4E90853E3699F423ED346
:10761000A5EB0805012D5DD84FF6FF72636A934212
:107620006DD1904DB5E704F14008DDE7636CE26B86
:107630002068D2F814C001A9052203FB0500E04729
:1076400001A8FEF74BFF02280FD0D84515D109F14C
:107650000102606C216804F1400300FB0511E06B3E
:10766000FEF772FF2046FFF7F9F8E3690135B5FB35
:10767000F3F2013703FB125582E729462046FFF754
:10768000F4FAB0F1FF3F08BF4846421CE1E7636CE3
:10769000E26B2068D2F814C001A9052203FB0700A1
:1076A000E04701A8FEF71AFF824601A8FEF7EEFEAA
:1076B000BAF1010F0CD8484538BF6762804528BF32
:1076C0008046854238BF05468146236A01332362DE
:1076D00001379AE74FF6FF7300256362E3699D4225
:1076E0009AD2676C2068E36B05225B6901A907FBEE
:1076F0000500984701A8FEF7C9FE0135EEE7E26BE9
:10770000676C2068556901A9052207FB0300A8479B
:1077100001A8FEF7BBFE616C2268636A524D01FB53
:1077200003231433A3624FF0FF332A46E3626FF062
:1077300001010DF103032046FFF744FE002854D158
:10774000AB68E362E56A20462946FFF7A7F82063A5
:1077500020B9E16A2046FFF7E2F8E06229462046B8
:10776000FFF7DDF80546A36A9D4240D16369656C69
:107770002046A5F11402DD1CB5FBF2F503EBC505AF
:107780000335B5FBF2F5FFF7A4F8AB1C9842814630
:107790003FD2616A2046FFF749FA01268046033549
:1077A00004F1400A731E994512D82368676C0522BC
:1077B00007FB0837E36B01A95B693846984701A8C6
:1077C000FEF764FE534602463946E06BFEF7BCFE08
:1077D00041462046FFF72AFA0136B5428046E1D1FC
:1077E000224D284607B0BDE8F08FA36AA9E72946D5
:1077F0002046FFF753F8236B2946034407462363CB
:107800002046FFF78CF80546002FACD1C4E90B07E2
:10781000A9E73046FFF703F8154DA16AE36A9942DC
:1078200001D04B1C01D10025B3E62846FFF7B6FD79
:107830000DF10303012229462046FFF7E5F930B197
:10784000D5E900129DF803303046FEF789FFA9689C
:107850004A1CE3D169682046FFF761F80146DDE77D
:1078600003E000F016E000F0C40E002013E000F08A
:107870001C0F00202DE9F04F41F268038A464FF4B7
:1078800000314FEA820B354A354C85B00190D1501A
:10789000E369012203F48033029341F67133E36319
:1078A00041F20C030746D1465E46E2500EB930461F
:1078B0002FE007F5005525F4FF5525F01F056761FA
:1078C000ED1BE269B54228BF3546520735D4D9F8D9
:1078D000001009F10402A161A5F10408B8F1000F3C
:1078E0000ED1042241462261212008F0E5FC80B936
:1078F000212008F0E1FC60B92F44A944761BD5E7AC
:1079000008210846039208F0D7FC039A78B10423B3
:10791000236142F20C020121114B9950029A0AB1E3
:107920000022DA63431C0BD070B10E4809E052F814
:10793000041BA8F10408A161D0E74FF0FF30E8E78D
:10794000094805B0BDE8F08F5A465146019808F045
:1079500003FC0028054808BF0020F2E70080004033
:107960000000034024E000F021E000F010E000F00F
:107970002DE9F04385B088466946044681E80C004D
:107980000C9EBDF83470FFF74FFB4FF6FE790546AD
:107990000DB1444505D94FF6FF74204605B0BDE84A
:1079A000F0832B7A9DF804209A421ED100996868D2
:1079B00008F0D2FBC8B9002EEFD02B69AA8AA3B178
:1079C0004A4509D10290ADF80C0002A9984760B968
:1079D000029BBDF80C2043B1974206D13A461946A6
:1079E000304608F0B9FB0028D7D001342D68A4B286
:1079F000CEE70000F0B5354C87B011464FF48670E5
:107A00001F461646FFF778F9236925462BB94FF430
:107A10008370FFF771F907B0F0BD002F08BF082E83
:107A200021D101AA0321206802F08CFF6368606104
:107A30005B7A04F1180123769DF804300220DA1FE6
:107A400053425341627E63F30002039B6276E3611B
:107A5000BDF806306383236998470122002120681E
:107A600002F078FFD7E7002F08BFB6F5000F03D16B
:107A7000002101209847CEE7002306F4A0421343DB
:107A800009D04FF480714FF48170FFF735F9236905
:107A900000210320EEE7002306F4A062134308D080
:107AA00001214FF48170FFF727F92B690021FF2096
:107AB000E0E7002306F02052134319BF012140F2F2
:107AC000011031464FF48370EDE700BF50130020E2
:107AD0001FB502238DF80630064B5A8B59690332C5
:107AE000ADF8042018686A4602F030FF009805B02F
:107AF0005DF804FB5013002008B500214FF4857099
:107B0000FFF7FAF80022044B03211A6118680122DA
:107B1000BDE8084002F0D8BB5013002013B50D4B50
:107B200001281B880C4CADF80430ADF8003002BFC2
:107B300002238DF80430042301A9206808BF8DF8C2
:107B4000003002F05FFE6946206802F073FE02B06A
:107B500010BD00BFE80201005013002037B500221D
:107B6000114C437A00926060D0E90021206802F055
:107B70005DFF238CDB050CD563680C4D1A7A2978E0
:107B8000914206D0012A06D0022A08D063681B7AE7
:107B90002B7003B030BD206802F01EFFF6E72068AE
:107BA00002F020FFF2E700BF50130020350700204D
:107BB000F0B51A4C85B0637A18480133DBB2272B35
:107BC00088BF25236372FFF7C9FFE768657C627D84
:107BD000134C14494FF400730232206802F091FEF6
:107BE0006368114A5B7A05F001052846D65CFFF709
:107BF00095FF0022012300928DF80C30314602AB34
:107C00002068029702F064FB28B1FFF775FFFFF7C9
:107C1000CFFF05B0F0BD054B2361FAE7340100202A
:107C2000501300204801002065040100B9870000BE
:107C300038B50D4611462C680144A41A224608F0B6
:107C40009AFA2C6038BD00002DE9F0470C464849EF
:107C5000484B0D689246471B4748484A1B1A4848FC
:107C60001760034423F4FF5323F01F039F42884609
:107C7000914676D355443D44FFF70EF908B9FFF716
:107C800003F9854270D8D8F800000AEB0005B5F575
:107C9000806F03D982223B4B1A7060E03A4E524605
:107CA0002146304408F03CFA384BC8F800501A68B6
:107CB0001AB9332D53D9726B1A601B687C199F4215
:107CC0001DD8A3421BD203F11002A24247D8DB1BEE
:107CD0001E4433462E4A06F1100153F8040B8B4222
:107CE00042F8040BF9D12A48FFF7F6F810B9254BF2
:107CF0008422D1E71022FF21304608F01CFA254EDD
:107D000005F0030524483368641B044053B9384028
:107D1000C0F500512144FFF745F9346040B1194BDB
:107D20008522B9E79C4203D9E11A03F50050F2E736
:107D3000D8F800201449521BD9F80000FFF740F989
:107D40000446D8F80020D9F80030521B13440849E3
:107D50000D48C9F80030FFF76BFF002CDFD1BDE8FC
:107D6000F087084B872297E7064B832294E700BFF2
:107D7000481300201401002010000020800B002078
:107D8000436501007D0B0020480F00200C0E0020F1
:107D9000FC0D00204C13002000E0FFFFEFF31080EB
:107DA00072B6704741F264034FF48031064AD150F5
:107DB000064B5B69C3F38512827003F03F021B0B15
:107DC00042700370704700BF0080004000C0074051
:107DD00013B5044601A8FFF7E5FF9DF80630012220
:107DE00023804FF4807300206380054B9B680A3327
:107DF00003F01F0302FA03F3636002B010BD00BF7B
:107E00000080E00FF0B54AB1012530241D4E8D40B1
:107E100004FB00640BB341F21006A5513024444327
:107E2000072904F1804404F5703419D80F276568D8
:107E30008E00B74025EA070502FA06F6354365606D
:107E400052B9012202FA01F130220E4C02FB00402D
:107E5000A3B141F21003C150F0BD42F21006DCE7BD
:107E60000F2701F18045083DE668AD00AF4026EAE6
:107E7000070602FA05F53543E560E1E742F2100333
:107E8000E9E700BF00C00340EFF3108072B670470F
:107E900000B962B67047000010B5034CA01DFEF794
:107EA000BFFF0023236010BDDC0D002010B5094C7E
:107EB000B4F80710A079FEF79FFFA368B4F80D107F
:107EC000054AC3F30F239384D184FEF777FF002381
:107ED000236010BDDC0D0020D8060020034B044AAF
:107EE0009979117500221A60704700BFDC0D0020DF
:107EF000D8060020FFF7CCBF08B5C368002098471C
:107F0000024B1868BDE80840FFF7C2BFD40D00203F
:107F10002DE9F04FB94F87B03B780646894601926C
:107F200003F0FF0B002B37D1FEF7B6FF8246FEF7BA
:107F3000ABFFBAF1000F00F00C81B14BA0F500557A
:107F4000D3F80080C3F800B0AE4BA5EB0A0593F858
:107F500034101C4600297BD01A68924540F0F98005
:107F60005A68954240F0F5809968A74A914240F0DE
:107F7000F080DA68062A40F0EC8040F26C725969B1
:107F8000914240F0E680D96BA04A914240F0E180F6
:107F9000C3F818B001233B709A4C94F83430002B8E
:107FA00000F0D7809A4D012104F13C0046F480286E
:107FB000FEF748FC04AB2A4641462046FFF702FA8A
:107FC0000746002840F0CC809DF81030032B00F0CD
:107FD000C780022B00F0C7802E69E06BFFF78CFF93
:107FE000002F40F0B680019B1B78B342C0F0B180F7
:107FF00094F834300093002B00F0AB8001218548C9
:10800000FEF720FC0DF10B03814A41467D48FFF746
:10801000D9F9074680B99DF80B30012B40F0048157
:108020002B69B34240F00681B346D5F804A0E36B58
:10803000BBF1000F40F09980E06BFFF75DFF002F70
:1080400040F08780019B1E70009807B0BDE8F08F5C
:10805000402203F11000D3F838B008F06CF840F279
:108060006C736361684B04F10800A3600623E3604E
:10807000C4F838B0C4E900A5FEF7D1FB634B04F1A6
:108080004000E363FFF7A4FE002867D1626C002A7A
:1080900064D06368B3FBF2F3E36194F84330002BE0
:1080A00057D0656C002D54D0E369002B51D0226865
:1080B000B2FBF5F305FB1323002B4AD1D4F804A03F
:1080C000BAFBF5F305FB13A3002B42D14D48FEF795
:1080D000FAFD82453DD340F634726369CC3B93424E
:1080E00037D8B5F5007F34D303214A48FEF7AAFB01
:1080F000D4E90001E36B1B6898470546E36B022057
:10810000DB689847D5B941463E48FFF717FA424B1E
:108110000546984204D141463A48FFF70FFA054612
:1081200065B9636C3748A3F11408236A03FB08F8A8
:10813000FEF7C9FD394B804538BF1D46B5FA85F3BA
:10814000E06B5B0984F83430FFF7D6FE002D3FF476
:1081500021AF0023019A0093137075E700239BE77A
:1081600000262F4F39E7042637E75B69012203A970
:10817000504698472649039B0968C3F3D31291429E
:1081800050D103F07F03012B2BD903A8FEF760FA2F
:108190004FF00408584528BF58468208D044054689
:1081A000ABEB000B0AD0E36B49465B69404698474E
:1081B00025F00303984405F0030599445DB1E36B92
:1081C00001225B6904A94046984748462A4604A90B
:1081D00007F0A6FFA94451460A48FEF7A0FB8246D5
:1081E00025E7E36B02225B6904A95046984704A87F
:1081F000FEF72EFA4FF00808CCE700BF400E002033
:1082000014040020480E0020100E00204804010035
:10821000980E0020840E002013E000F002E000F031
:108220000BE000F0044F07E7044F054A022B08BF9C
:10823000174601E7034FFFE622E000F00BE000F0F5
:108240000CE000F011E000F02DE9F04106460D468B
:1082500014460C4F0CB9BDE8F081EFF3108872B6EC
:1082600023462A4631463846FEF7E2FF034640469B
:10827000FFF70EFE002BEDD0E41AA4B21D44002639
:10828000E8E700BFB80C0020002313B501F1080493
:1082900021461A46ADF80430ADF80600083151F811
:1082A000100C70B90BB1ADF80420042201200DEBC5
:1082B00002010834FFF7C8FF54F8101C39B902B0A6
:1082C00010BD51F80C3C1A4492B20123E6E734F891
:1082D0000C2C0020EDE700007FB500230130CDE934
:1082E0000433064BCDE90101694604200093039253
:1082F000FFF7CAFF07B05DF804FB00BFE2010020F2
:108300002822136810B5B3F5C04F0ED2EFF31080DA
:1083100072B6002407490B780C70FFF7B9FD3BB12A
:10832000BDE8104013681B6A18474FF4817010BDF8
:108330001846FCE7D80D002001282DE9F34740F04E
:108340003E818B88012B40F03C810B681B7813BB6E
:108350009E4A9F4C13609F4A13609F4A13609F4A36
:1083600013609F4A13609F4A13709F4A13609F4A8D
:1083700013602278022A01D1FFF7C2FF0123237084
:1083800000249B4B1C709B4B1C709B4B1C7020460D
:1083900002B0BDE8F087032B40F0FE80964BDFF87B
:1083A00030921C78002C4ED199F80030002B00F050
:1083B000E7808C4B1B78082B40F08380834B186838
:1083C000984668B928252B68B3F5C04F62D34FF49F
:1083D000017041F20804A0420CBF8624802432E0E0
:1083E00010F003060EBF2646C6F10406F6B200EBF7
:1083F000060ABAF5806F00F2C980804B3246FF2131
:108400001844794F07F097FE7D4A3B6812680AEBE3
:1084100003019142C8F800A000F2BC806D4A1568C3
:108420001D445544DFF8B8A125F4FF55DAF80000E3
:1084300025F01F0585420CD9291A00F50050FEF7DA
:10844000B1FD20B18524002389F800309FE7CAF8E8
:10845000005028231B68B3F5C04F18D21B6BB3F52F
:10846000C04F14D21D69654AD8F800303968002021
:10847000A84705463B68D8F80020544913449E1B82
:108480005E483E60FFF7D4FB002D9BD0DAE74FF447
:108490008175EFE7FDF7E2FE00289AD12B68019085
:1084A000B3F5C04FCED21B6BB3F5C04FCAD29B6998
:1084B000012101A898470028C4D101224D4B1A7010
:1084C000C1E7002B5ED04A4B1B78002B5CD0474E97
